:100000000C9477010C949F010C949F010C949F0118
:100010000C949F010C949F010C949F010C949F01E0
:100020000C949F010C949F010C9459240C94C824A7
:100030000C949F010C949F010C949F010C949F01C0
:100040000C949F010C949F010C949F010C949F01B0
:100050000C949F010C949F010C949F010C94FA2620
:100060000C949F010C949F010C949F010C949F0190
:100070000C949F010C949F010C949F010C949F0180
:100080000C949F010C949F010C949F010C949F0170
:100090000C9444270C949F010C949F010C949F0195
:1000A0000C949F010C949F010C949F01084AD73B2C
:1000B0003BCE016E84BCBFFDC12F3D6C74319ABD37
:1000C00056833DDA3D00C77F11BED9E4BB4C3E915B
:1000D0006BAAAABE000000803F05A84CCDB2D44E4A
:1000E000B93836A9020C50B9918688083CA6AAAA4C
:1000F0002ABE000000803F00000000000000000059
:100100002A2B280000000000000000000000000072
:1001100000000000000000002C9EB4A0A1A2A434A6
:10012000A6A7A5AE362D3738271E1F20212223244F
:100130002526B333B62EB7B89F8485868788898AEB
:100140008B8C8D8E8F909192939495969798999A87
:100150009B9C9D2F3130A3AD350405060708090A85
:100160000B0C0D0E0F101112131415161718191A67
:100170001B1C1DAFB1B0B500070605040100080A3D
:100180000B0C0D0900000000240027002A002D00A0
:10019000300000000000250028002B002E00310058
:1001A000000000002300260029002C002F0004047A
:1001B0000404040304050202020204030202020210
:1001C00006060606060604040202020404040802E7
:1001D00001104080401020408040800802040180CF
:1001E000402010020110801020404020000000023A
:1001F00000090F0000030401000C000000000000D3
:100200000000000000000000000000080B000202D7
:100210000200000904000001020200000524001091
:10022000010524010101042402060524060001073A
:1002300005810310004009040100020A00000007C4
:100240000502024000000705830240000004030984
:100250000412010002EF0201404123368000010137
:1002600002030141726475696E6F204C4C4300417A
:10027000726475696E6F204C656F6E6172646F0099
:1002800005010902A1010901A10085010509190162
:100290002903150025019503750181029501750556
:1002A000810305010930093116000026FF7F360061
:1002B0000046FF7F751095028102C0C00501090646
:1002C000A1018502050719E029E71500250175013F
:1002D000950881029501750881039506750815003A
:1002E00025730507190029738100C00063281124B4
:1002F0001FBECFEFDAE0DEBFCDBF11E0A0E0B1E07E
:10030000EEE2FEE602C005900D92A03DB107D9F7DE
:1003100024E0A0EDB1E001C01D92A23BB207E1F7DD
:1003200011E0C7E7D1E004C02197FE010E94C63565
:10033000C637D107C9F70E949F2A0C9415370C9431
:100340000000982F2091260381E0213208F043C05D
:10035000809102038111FCCF8091250332E030931C
:100360000203909301039FEF909300031092FF020A
:100370002093FE02A5E0B3E0EEEDF2E090E0291359
:1003800031C01092DD029091DD02880F892B80939D
:10039000DD028091DC02813049F51092DC0280910F
:1003A000DD028093BB008091BC0083FDF8CF85EC1B
:1003B0008093BC00809102038230E1F380910003BE
:1003C0008F3FB1F0809100038032A1F08091000353
:1003D000803391F084E0109204031092260310926F
:1003E000030308953D9131939F5FC9CF85EEE0CF20
:1003F00080E0F1CF82E0EFCF83E0EDCFFC01809190
:10040000B902882311F13FB7F89482E08093E900A4
:100410002091F200822F90E01816190614F481E062
:1004200090E0882339F0289844E64093B802409140
:10043000F1004083222339F02091F200211103C002
:100440002BE62093E8003FBF08958FEF9FEF0895BC
:1004500008950895089540919A0250919B02209129
:1004600098023091990242175307B4F49091E80032
:100470009570E1F39091E80092FD19C08093F1002E
:1004800080919A0290919B0201968F739927892BF4
:1004900019F48EEF8093E80080919A0290919B026C
:1004A000019690939B0280939A0281E0089580E0E8
:1004B0000895EF92FF920F931F93CF93DF93F82E3F
:1004C000192FE62E042F81E0860F880F0E942B0241
:1004D00083E00E942B02CF2DD12FEC0EFD2EF11CBC
:1004E000CE15DF05B9F007FF13C0FE0184910E940D
:1004F0002B02182F80E00E942B028123219681116C
:10050000EFCFDF91CF911F910F91FF90EF90089562
:100510008881EDCF81E0F5CFDF92EF92FF920F93CC
:100520001F93CF93DF93D82E8A01EB017B01E40E5A
:10053000F51ECE15DF0559F0D7FE12C0FE018491DD
:100540000E942B0221968111F4CF0FEF1FEFC801FB
:10055000DF91CF911F910F91FF90EF90DF90089561
:100560008881EECF2FB7F89487708093E90090913F
:10057000E800892F807295FF04C09091F20080E41A
:10058000891B2FBF0895615030F02091F100FC01CC
:1005900020830196F8CF289884E68093B8020895C6
:1005A0008091900281110DC082E080938C0284E0E2
:1005B00080938D0210928F0210928E0281E08093C0
:1005C00090028CE892E008950F931F93CF93DF93EE
:1005D0001F92CDB7DEB782E0898342E450E06BE042
:1005E00072E080E80E948C020E94D002DC01129628
:1005F0000D911C910115110589F0D801ED91FC9127
:100600000280F381E02DBE016F5F7F4FC801099525
:1006100097FD04C0F80100851185ECCF89810F900A
:10062000DF91CF911F910F910895CF93DF93FC013C
:10063000DB01818114963C911497682F630F772713
:10064000771F683071059CF5C281D381209739F5F9
:10065000B383A283908112969C93129713968C93E6
:10066000139715968C911597890F808390E080E001
:10067000831708F52181C22FD0E0BE016B5F7E4F4A
:1006800016964D915C911797480F591FEA014881C2
:10069000EB0148832F5F21830196EACFEA01488569
:1006A000598541155105D1F7B987A887D3CF80E087
:1006B000DF91CF91089581E0FBCFCF93DF931F921D
:1006C000CDB7DEB76983DC01ED91FC910280F38147
:1006D000E02D41E050E0BE016F5F7F4F09950F9024
:1006E000DF91CF91089583E08093E9008091F2003B
:1006F000882319F08AE38093E800089583E00E943C
:10070000B20290E00895CF93DF931F92CDB7DEB78A
:10071000FC018485958597FD08C02FEF3FEF358755
:1007200024870F90DF91CF910895CE0101960E940A
:10073000FE01019719F4898190E0F3CF8FEF9FEFCD
:10074000F0CF0F931F93CF93DF931F92CDB7DEB7F8
:100750008C01FC018485958597FF0BC0CE01019625
:100760000E94FE01019771F4898190E0F80195875C
:100770008487F801848595850F90DF91CF911F9133
:100780000F9108958FEF9FEFF1CFFC018485958540
:1007900097FD0BC09FB7F89482E08093E9008091A9
:1007A000F2009FBF90E0019608959FB7F89482E011
:1007B0008093E9008091F2009FBF90E008958150FE
:1007C0008F3008F047C0E82FF0E0E751FC4F0C9461
:1007D000C63506040A04F803FE0302042A042A04A8
:1007E0002A040D04130417041B0421042A042504FD
:1007F000809180008F7780938000089580918000A1
:100800008F7DF9CF80918000877FF5CF84B58F777A
:1008100084BD089584B58F7DFBCF809190008F7744
:10082000809390000895809190008F7DF9CF809102
:100830009000877FF5CF8091C0008F778093C000B4
:1008400008958091C0008F7DF9CF8091C200877F8D
:100850008093C2000895CF93DF93282F30E0F901F1
:10086000E451FE4F8491F901E353FE4FD491F90115
:10087000E255FE4FC491CC23A1F081110E94DF0309
:10088000EC2FF0E0EE0FFF1FE056FE4FA591B49164
:10089000EC91ED2381E090E009F480E0DF91CF91CD
:1008A000089580E090E0FACF1F93CF93DF93282F35
:1008B00030E0F901E451FE4F8491F901E353FE4F1A
:1008C000D491F901E255FE4FC491CC23A9F0162F23
:1008D00081110E94DF03EC2FF0E0EE0FFF1FEE56B8
:1008E000FE4FA591B4918FB7F894EC91111108C007
:1008F000D095DE23DC938FBFDF91CF911F910895B8
:10090000DE2BF8CFCF93DF9390E0FC01E353FE4F53
:10091000249182559E4FFC0184918823D1F090E070
:10092000880F991FFC01EC57FE4FA591B491FC0173
:10093000EE56FE4FC591D491623071F49FB7F89492
:100940003C91822F809583238C93E8812E2B2883E2
:100950009FBFDF91CF9108958FB7F894EC912E2B24
:100960002C938FBFF6CF8251E82FF0E0E858FE4F6E
:10097000E49190917B008E2F880F880F80729F7D6D
:10098000892B80937B00E770E064E0937C0080918A
:100990007A00806480937A0080917A0086FDFCCF93
:1009A000809178009091790008953FB7F8948091F4
:1009B000880290918902A0918A02B0918B0226B59B
:1009C000A89B05C02F3F19F00196A11DB11D3FBF87
:1009D000BA2FA92F982F8827BC01CD01620F711D56
:1009E000811D911D42E0660F771F881F991F4A9550
:1009F000D1F708958F929F92AF92BF92CF92DF92DC
:100A0000EF92FF924B015C010E94D5046B017C01C7
:100A10000E94D5046C197D098E099F09683E7340B8
:100A200081059105A8F321E0821A9108A108B10877
:100A300088EEC80E83E0D81EE11CF11C81149104DD
:100A4000A104B10429F7FF90EF90DF90CF90BF9001
:100A5000AF909F908F9008957F928F929F92AF92C8
:100A6000BF92CF92DF92EF92FF920F931F93CF939B
:100A7000DF93C82E8B017A018091B902811110C0D9
:100A80008FEF9FEFDF91CF911F910F91FF90EF902C
:100A9000DF90CF90BF90AF909F908F907F90089500
:100AA00080919E0280FF05C08091E000826080936B
:100AB000E000CE2DDF2DD12C8AEFB82E8C2D877043
:100AC000982E8C2D8072882E8C2D8074782E9AE32F
:100AD000A92E209719F4DD2009F452C08C2D0E9414
:100AE000B20281110AC0BA94BB2051F261E070E0F9
:100AF00080E090E00E94FA04ECCF8C171D0611F004
:100B00000CF08C2F9FB7F8949092E9002091E800A8
:100B100025FD02C09FBFDDCF282F30E0C21BD30BC5
:100B2000882029F08150A0F01092F100FBCFF8014D
:100B3000C7FC0AC0815050F041914093F100FACFB8
:100B400044914093F10031968150D0F7020F131F6A
:100B5000DD2021F0A092E800D12CDCCF8091E800CC
:100B600085FD07C0A092E800DD24D394209791F280
:100B7000F3CF209779F6772069F2A092E800CACFE8
:100B80005D9884E680939D02C7017CCFCF93DF936D
:100B9000EC0180911701882331F083E00E942C053D
:100BA0001816190634F081E090E09B838A8380E078
:100BB00090E0DF91CF9108952FB7F894609184026F
:100BC0007091850280918602909187022FBF0895CF
:100BD0000F931F930E94DC0560932F0370933003E3
:100BE000809331039093320387E293E00E94A10344
:100BF00097FF1DC00E94DC0500912F031091300368
:100C00002091310330913203601B710B820B930BE7
:100C100000912B0310912C0320912D0330912E0372
:100C20006017710782079307F8F28FEF9FEF1F910C
:100C30000F910895CF92DF92EF92FF92CF930E948F
:100C4000E805FC0197FD4EC08D32910521F0C0975B
:100C50000A9708F040C0C12CD12C7601C0E0E130E9
:100C6000F105D1F0ED32F105D9F1CF01C0970A9726
:100C700098F4AAE0B0E0A70196010E94FC326F014F
:100C8000FF0FEE08FF08C60ED71EE81EF91E80E310
:100C9000C81AD108E108F10887E293E00E948303B3
:100CA0000E94E805FC01C0970A97C8F2E130F105FF
:100CB000B1F2CC2341F0F094E094D094C094C11CE4
:100CC000D11CE11CF11CC701B601CF91FF90EF9040
:100CD000DF90CF90089587E293E00E948303AFCF27
:100CE000C1E0DACFC12CD12C7601EDCF85ED809318
:100CF000BC008091BC0084FDFCCF109202030895DB
:100D000020916002260F3327331F21323105ECF486
:100D100020910203FC0190E080E0243069F082E041
:100D20000895A09160022191AC01405C5D4FA40F39
:100D3000B52FB11D2C930196861798F38091600210
:100D4000680F6093600280E0089581E00895E0916B
:100D5000BB028091BA02E81730F4F0E0E454FD4F92
:100D6000808190E008958FEF9FEF08959091BB02EE
:100D70008091BA022FEF3FEF981748F4E92FF0E087
:100D8000E454FD4F208130E09F5F9093BB02C90186
:100D900008958091BA029091BB02891B990B089526
:100DA000CF92DF92EF92FF920F931F93CF93DF9337
:100DB0007C01CB018A0120910303222389F0EB01FE
:100DC0006B01C40ED51ECC15DD0569F06991D70104
:100DD000ED91FC910190F081E02DC7010995F3CFD1
:100DE000642F0E948006C801DF91CF911F910F915F
:100DF000FF90EF90DF90CF900895CF93DF931F92F5
:100E0000CDB7DEB76983209103032223F9F0209147
:100E10002603203258F021E030E0FC0133832283A6
:100E200090E080E00F90DF91CF91089580910403CE
:100E3000E82FF0E0EB5FFC4F998190838F5F809308
:100E400004038093260381E090E0ECCF61E0CE01C3
:100E500001960E948006F7CF682F87E793E00C94F5
:100E6000FD06CF93C62F9091EA0321E02093030360
:100E7000909325031092040310922603682F87E7AE
:100E800093E00E94FD066C2F87E793E00E94FD0629
:100E900081E0CF910C94A101DC01FB019181808163
:100EA000813A31F49D7F81E0913009F080E008952E
:100EB0008132E1F79B3029F482811F968C9381E087
:100EC00008959A3099F7828150968C93F8CFFC015F
:100ED0004281FB01248135814217130611F40C94E1
:100EE0004C0780E00895DC01FB0188E4808389E4FD
:100EF000818384E482831D969C911D979F709F5BE4
:100F000093831D968D919C9124E0969587952A95C3
:100F1000E1F78F708F5B848385E00895EF92FF92F5
:100F20000F931F93CF93DF93FB012081213889F525
:100F30002381223271F5DC0112964C912481358196
:100F40004217130631F58C01FC01C385D485F12CC1
:100F5000E12C209791F04C815D816A817B818E81AB
:100F6000811180E80E948C028F3F980759F0E80EAB
:100F7000F91E0990D881C02DECCF81E0D8011F96D1
:100F80008C93C701DF91CF911F910F91FF90EF904C
:100F9000089590E080E0F6CFCF93DF93CDB7DEB732
:100FA00069970FB6F894DEBF0FBECDBFFC01DB0121
:100FB0008C918F5F8C939E012D5F3F4F8DE0D90107
:100FC0001D928A95E9F729E0298384E08A8391E0DC
:100FD0009D8383E08E832A8721E22B879C879D87D0
:100FE0009F8722E2288B27E02B8B25E02C8B8E8B92
:100FF00020E430E0388F2F8B998F82818B83958509
:101000008685998B8A8B838180688D8B49E150E03E
:10101000BE016F5F7F4F80E00E948C0269960FB621
:10102000F894DEBF0FBECDBFDF91CF910895CF936F
:101030008091380281112CC0C1E0C0932B02C09373
:101040002C0281E392E090932E0280932D02109265
:10105000300210922F0287E991E09093280280934A
:10106000270210923302109232021092350210922F
:101070003402C0933602C093370281EC8093310270
:101080000E94D00267E272E00E941503C09338020A
:1010900087E292E0CF910895FC014281FB01248117
:1010A00035814217130611F40C944C0780E0089523
:1010B000AF92BF92CF92DF92EF92FF920F931F9366
:1010C000CF93DF931F92CDB7DEB77C0169836A01AE
:1010D000590141E050E0BE016F5F7F4FFC01838109
:1010E0000E942C058C0197FD0BC0F7018381A5019F
:1010F000B60180640E942C05080F191F97FD8C0112
:10110000C8010F90DF91CF911F910F91FF90EF9049
:10111000DF90CF90BF90AF900895EF92FF920F9322
:101120001F93CF93DF93FB012081213871F5238139
:10113000223259F5DC0112964C91248135814217F7
:10114000130619F5EC010B851C85F12CE12C01151A
:10115000110589F0F801448155816281738180E82D
:101160000E948C028F3F980749F0E80EF91ED801C3
:101170000D911C91ECCF81E08F87C701DF91CF915A
:101180001F910F91FF90EF90089590E080E0F6CFCF
:10119000CF93DF93CDB7DEB769970FB6F894DEBF74
:1011A0000FBECDBFFC01DB018C918F5F8C939E0144
:1011B0002D5F3F4F8DE0D9011D928A95E9F729E017
:1011C000298384E08A8391E09D8383E08E832A874C
:1011D00021E22B879C879D879F8722E2288B27E02F
:1011E0002B8B25E02C8B8E8B20E430E0388F2F8BDF
:1011F000998F82818B8395858685998B8A8B838154
:1012000080688D8B49E150E0BE016F5F7F4F80E0C9
:101210000E948C0269960FB6F894DEBF0FBECDBF58
:10122000DF91CF910895CF9380911F0281112CC03F
:10123000C1E0C0931202C093130288E192E0909340
:1012400015028093140210921702109216028BE876
:1012500091E090930F0280930E0210921A02109266
:10126000190210921C0210921B02C0931D02C0931F
:101270001E0281EC809318020E94D0026EE072E0A0
:101280000E941503C0931F028EE092E0CF91089553
:10129000CF93DF9300D000D01F92CDB7DEB7E1E946
:1012A000F3E080818983918182819A838B8393810A
:1012B00084819C838D830E94130925E030E0AE0178
:1012C0004F5F5F4F61E00E9458080F900F900F90A2
:1012D0000F900F90DF91CF910895CF92DF92EF9210
:1012E000FF920F931F93CF93DF936C01EB017B0170
:1012F000E40EF51E10E000E0CE15DF0581F06991E7
:101300006D30D1F3D601ED91FC910190F081E02D8B
:10131000C6010995892B19F00F5F1F4FEDCFC8014A
:10132000DF91CF911F910F91FF90EF90DF90CF90C1
:101330000895CF93DF93EC016838E0F06858FE0120
:1013400086E0662321F09681961301C016828150B3
:1013500031968111F6CF0E941309AE014C5F5F4FA9
:1013600028E030E062E00E94580881E090E0DF91E0
:10137000CF910895E62FF0E067FF0EC0E058F10925
:1013800081E090E001C0880FEA95EAF780959C81A2
:1013900089238C8360E0D3CFE850FF4F649190E0C5
:1013A00080E0662321F367FFCACF8C818D7F8C8319
:1013B0006F77C5CFCF93DF93EC01683858F1685849
:1013C0008E818617D1F08F818617B9F088858617B0
:1013D000A1F08985861789F08A85861771F08B853B
:1013E000861759F0FE01369690E080E02191211198
:1013F00037C08C0F9D1FFC0166830E941309AE014C
:101400004C5F5F4F28E030E062E00E94580881E0C6
:1014100090E01CC0E62FF0E067FF0DC0E058F10936
:1014200021E030E001C0220FEA95EAF78C81822B9F
:101430008C8360E0C5CFE850FF4F6491611109C013
:1014400081E090E09B838A8390E080E0DF91CF9100
:10145000089567FFB5CF8C8182608C836F77B0CFA2
:1014600001968630910509F0C1CFEACFEF92FF9245
:101470001F93CF93DF93EC01162F0E94DA097C01B2
:10148000612FCE010E949909C7019927DF91CF9161
:101490001F91FF90EF900895089590E080E00895E7
:1014A000CF92DF92EF92FF926B017C0128EB3EEF2F
:1014B00043EB53E40E942A3518168CF420E030E008
:1014C00044EB53E4C701B6010E9438336B017C0141
:1014D000C701B601FF90EF90DF90CF90089520E014
:1014E00030E0A901C701B6010E94A33187FFF0CF08
:1014F00020E030E044EB53E4C701B6010E943933E9
:10150000E5CF8F929F92AF92BF92CF92DF92EF92F0
:10151000FF921F93CF93DF93FC012785222309F4C9
:101520006EC0F62EEC01649F60011124C114D10439
:10153000F1F10E94DC0569877A878B879C87188187
:101540008E816F2D882329F16A8970E090E080E018
:101550000E94AA3120E030E048EC52E40E941C34A2
:101560004B015C01B601DD0C880B990B0E94AA317E
:101570009B01AC01C501B4010E9409320E948E3466
:101580006B01EB0161E0812F0E948204209789F4B6
:1015900060E0812FDF91CF911F91FF90EF90DF905E
:1015A000CF90BF90AF909F908F900C945404108672
:1015B000C6CFCF3FD10511F461E0EBCFE12FF0E0D2
:1015C000E451FE4FE491E150EF3008F087C0F0E0C5
:1015D000E451F54F0C94C635FB0A0B0B100B1A0B9C
:1015E000240B6E0B6E0B6E0B2E0B380B420B4C0B41
:1015F000590B6E0B610B84B5806884BDC7BCDF914D
:10160000CF911F91FF90EF90DF90CF90BF90AF9060
:101610009F908F90089584B5806284BDC8BCEFCF41
:1016200080918000806880938000D0928900C09271
:101630008800E5CF80918000806280938000D09206
:101640008B00C0928A00DBCF8091800088608093FD
:101650008000D0928D00C0928C00D1CF80919000FC
:10166000806880939000D0929900C0929800C7CF74
:1016700080919000806280939000D0929B00C092F5
:101680009A00BDCF80919000886080939000D092A6
:101690009D00C0929C00B3CF8091C0008068809371
:1016A000C0008091C0008F7B8093C000C092CF00AB
:1016B000A6CF8091C00080628093C000C092D0000D
:1016C0009ECF8091C20088608093C2008091C2004A
:1016D0008B7F8093C200C092D20091CFC038D105D9
:1016E0000CF06ACF55CF8F929F92AF92BF92CF925C
:1016F000DF92EF92FF921F93CF93DF93EC018F81E4
:10170000680F6F834D838F85882309F452C08885C5
:1017100081114FC0142F0E94DC05C984DA84EB8448
:10172000FC846C197D098E099F090E94A8316B0108
:101730007C016B817C81072E000C880B990B0E9429
:10174000AA314B015C01698970E090E080E00E9461
:10175000AA3120E030E048EC52E40E941C349B01A6
:10176000AC01C501B4010E941C344B015C016981CC
:101770007A81072E000C880B990B0E94AA319B01DD
:10178000AC01C501B4010E9439339B01AC01C70112
:10179000B6010E942A3587FD0CC0412F61E0CE01C1
:1017A0000E94810A81E088878F81882311F081500F
:1017B0008F83DF91CF911F91FF90EF90DF90CF90BB
:1017C000BF90AF909F908F9008959091AB02992316
:1017D00091F0282F30E02E5F3F4F53E1529FC00120
:1017E000539F900D112484519C4FFC01208921119D
:1017F00002C00C94730B08951F93CF93DF93C82FEF
:10180000142FD22F462F682F80E00E94E50B412F26
:101810006C2F81E00E94E50B4D2F6C2F82E0DF9151
:10182000CF911F910C94E50B6330B9F058F46130FF
:1018300089F020E04FEF623091F02FEF4FEF6FEF24
:1018400080E00EC0643071F020E04FEF6530A9F702
:101850006FEF06C020E040E0FBCF2FEF40E060E0FC
:101860000C94FC0B2FEFF7CF4F925F926F927F9209
:101870008F929F92AF92BF92CF92DF92EF92FF92A0
:101880000F931F93CF93DF93CDB7DEB7CDB6DEB600
:101890008091CF032DB73EB7281B31090FB6F894BE
:1018A0003EBF0FBE2DBF8DB79EB701967C01009144
:1018B000C30310E08091BF039091C003D701FC01E6
:1018C0009F01281B390B201731071CF421912D9300
:1018D000F7CF8091C4038823A9F08091BD03909134
:1018E000BE0368E097FD08C068E671E00E94B2356B
:1018F0006DE270E00E94B235F701E00FF11F6083E6
:101900000F5F1F4F4091C8035091C9038091C603D8
:101910009091C703B090C5032B2D21702C01FA01C3
:101920008417950714F02A01FC0170E060E022237F
:10193000E9F16091B9037091BA03641575050CF46F
:10194000B2019F016E177F070CF49B0148175907DE
:1019500034F4CF01821B930B9C01240D351D052C03
:10196000000C66087708032E000C440B550B241955
:10197000350946095709AEEFBFEF0E94FC329F01BF
:10198000FF0F440B550B24193509460957090E94CE
:10199000DD32DA01C9018F5F9F47A109B109F70163
:1019A000E00FF11F8083918362E070E04091CC03EF
:1019B0005091CD038091CA039091CB032B2D2270BF
:1019C0004C01FA018417950714F04A01FC01222307
:1019D000E1F12091BB033091BC03281539050CF4CB
:1019E0009401E217F3070CF49F014817590734F4E8
:1019F000CF01821B930B9C01280D391D060F171F69
:101A0000092C000CAA08BB08032E000C440B550B34
:101A1000281939094A095B09AEEFBFEF0E94FC3271
:101A20009F01FF0F440B550B281939094A095B091F
:101A30000E94DD32DA01C9018F5F9F47A109B10918
:101A4000F701E00FF11F808391830E9417084C017A
:101A50004091CF038091CE0350E05A019FEFA91A25
:101A6000B90AEDB7FEB7EA19FB090FB6F894FEBF45
:101A70000FBEEDBF0DB71EB70F5F1F4F8183B701BC
:101A8000C80101960E940C37F4018381A501B801B9
:101A900080640E942C050FB6F894DEBE0FBECDBE4A
:101AA000DF91CF911F910F91FF90EF90DF90CF903A
:101AB000BF90AF909F908F907F906F905F904F906E
:101AC000089525E0289FF001299FF00D1124E95881
:101AD000FB4F808190916201913049F58230D9F1BC
:101AE00082819091C2038917B0F5E82FE695E695BB
:101AF000E6952091BF033091C003E20FF32FF11D53
:101B0000282F277081E090E0A0E0B0E004C0880FAB
:101B1000991FAA1FBB1F2A95D2F780959081892310
:101B200080838091C1038823B1F00C94340C6181CF
:101B300081110DC06053609580919103682360937B
:101B4000910380919E03882331F00C9448098DEA1B
:101B500093E00C94990908950F931F93CF93DF930B
:101B6000C82FD62F082F10E0F801E058FE4F8081D3
:101B7000861708F4D0E0C11141C080910401C81754
:101B800070F484E0C89FF0011124E55BFB4F818174
:101B9000082E000C990B0E94610DCF5FEECFDD2364
:101BA000B1F11092C7031092C60380E090E19093C8
:101BB000C9038093C8031092CB031092CA03909379
:101BC000CD038093CC0381E08093C1030E94340C49
:101BD00080E098E09093BA038093B9038091C103A9
:101BE00081110E94340C80E098E09093BC038093B4
:101BF000BB038091C10381110E94340CF801EE599E
:101C0000FE4FD083DF91CF911F910F91089580E017
:101C100098E09093BA038093B9038091C103811136
:101C20000E94340C80E098E09093BC038093BB0347
:101C30008091C10381110E94340C80E090E1A0E00A
:101C4000B0E08093960390939703A0939803B0938A
:101C5000990380939A0390939B03A0939C03B09362
:101C60009D0381E080939E038FEF9FE39093930306
:101C70008093920390939503809394030E94480964
:101C8000BDCF1F93CF93DF93182FC82FD0E0CE592D
:101C9000DE4F68816F5F0E94AC0DC881CF5F4FEF50
:101CA0006C2F8FEF93E00E94730B612F8C2FDF91CD
:101CB000CF911F910C94140CCF93DF93EB012091E3
:101CC00062012223A9F09093BA038093B903809113
:101CD000C10381110E94340CD093BC03C093BB0399
:101CE0008091C103882391F1DF91CF910C94340C42
:101CF0002FEF3FE7DC010E94CC3520919603309115
:101D0000970340919803509199030E9407333093B1
:101D10009303209392032FEF3FE7DE010E94CC351F
:101D200020919A0330919B0340919C0350919D0315
:101D30000E940733309395032093940380919E0370
:101D4000882321F0DF91CF910C944809DF91CF9146
:101D50000895909102039111FCCF262F91E090936A
:101D60000203909301033FEF309300031092FF02B0
:101D7000360F3093FE029093DD029091DD02880FC2
:101D8000892B8093DD028091DC02813019F510925D
:101D9000DC028091DD028093BB008091BC0083FD5A
:101DA000F8CF85EC8093BC00809102038130E1F391
:101DB0008091FF02861710F42091FF02AEEDB2E091
:101DC000ECEBF2E080E0821307C01092BB0280933C
:101DD000BA02089585EEE6CF9D9191938F5FF3CF80
:101DE0002F923F924F925F926F927F928F929F922B
:101DF000AF92BF92CF92DF92EF92FF920F931F9319
:101E0000CF93DF9300D000D000D01F92CDB7DEB7C4
:101E1000312C2224239480910401381608F0D6C076
:101E2000232D30E07901EE0CFF1CEE0CFF1C870126
:101E3000055B1B4FD8018C91B1E0B31508F49AC033
:101E4000F901E755FD4F5F01F081FF83A7014A5F6C
:101E50005D4F4A01DA014D905D906D907C90220FAC
:101E6000331FF901E458FE4FC080D1800E942B043B
:101E7000F801228133818217930709F458C09383B4
:101E80008283892B09F044C00E94DC05D4016D9344
:101E90007D938D939C931397B1E03B122AC0809160
:101EA000A802811126C090916701992329F08091A1
:101EB00005028F5F8093050210916301112321F0C9
:101EC00080915D01811106C0992399F080910502EE
:101ED000863078F0113009F071C060E070E190E078
:101EE00080E00E945C0E1093AF02109205022092D7
:101EF0005901F701E55BFB4F218135E02303F00138
:101F00001124E958FB4F84818F5F8483339483CFFE
:101F1000E181B1E03B1208C01092AF021092AD0215
:101F20003092500410925901D5011C923BC0C1144B
:101F3000D10461F3892B51F70E94DC0564197509FE
:101F4000860997090D2C000CEE08FF08C616D70667
:101F5000E806F906D8F6EF81E111D8CF1092AF026A
:101F600010925901D5012C92B1E03B12CFCF3092A3
:101F7000AD02CCCF0E942B04F8012281338182175D
:101F8000930721F293838283892B59F4F4E03F1263
:101F9000B0CF809164018823A9F0E2E0E0935C0473
:101FA000A8CFE181B5E0BE9FF0011124E958FB4FB5
:101FB0008481882309F4AACF8150A7CFB2E0B093DF
:101FC000500493CFF6E0F0935C0493CF66E070E0AA
:101FD00082E590E00E94A90E8FEFE82E81E0F82EB6
:101FE00010E09091BA028091BB02981751F087E7F8
:101FF00093E00E94B606F70181937F011F5F1630C0
:1020000081F781E08093030382E58093250310929A
:1020100004031092260390E080E00E942C0781E0E8
:102020000E94A101163009F04EC080910402982F41
:1020300090959170998390E08095909586958170A8
:102040008A838091FF018F57990B209100022058BD
:10205000330B41E02F3131050CF440E04B8341E07C
:102060008F3191050CF440E04C8341E0223E3F4F1C
:102070000CF040E04D8321E0823E9F4F0CF020E0C9
:102080002E83AE014F5F5F4FA9EFB1E080E035E0F6
:1020900062E0823008F065E0680FFA012191AF013B
:1020A0009D91291769F0369FF0011124E958FB4FE3
:1020B0009481222309F19F5F9483FD01319720834E
:1020C0008F5F863029F727960FB6F894DEBF0FBED4
:1020D000CDBFDF91CF911F910F91FF90EF90DF90D7
:1020E000CF90BF90AF909F908F907F906F905F90B8
:1020F0004F903F902F9008959150DECF8F929F92F6
:10210000AF92BF920F931F93CF93DF93CDB7DEB7FC
:10211000A1970FB6F894DEBF0FBECDBF19A2423013
:1021200008F44AE08E010F5D1F4F842E912CB12CD4
:10213000A12CA50194010E940733E62FB901CA0121
:10214000EA3044F5E05DD801EE938D01232B242B7A
:10215000252B79F790E080E0109769F0FD01019060
:102160000020E9F73197AF014A1B5B0BBD0187E205
:1021700093E00E94C605A1960FB6F894DEBF0FBE8D
:10218000CDBFDF91CF911F910F91BF90AF909F90E6
:102190008F900895E95CD7CFFF920F931F93CF9351
:1021A000DF93EC018B01FB01F0800E94C732F8162F
:1021B00021F06F2DCE010E94CF32F801F1802196DF
:1021C000CE010E94C732F81621F06F2DCE010E9479
:1021D000CF32C801DF91CF911F910F91FF900895E9
:1021E000EF92FF920F931F93CF93DF9300D0CDB761
:1021F000DEB78B017C01EE0CFF1CC7010E94C732C9
:102200008983C70101960E94C7328A8389819A8196
:102210008F3F980709F08C01C8010F900F90DF9154
:10222000CF911F910F91FF90EF9008958F929F9201
:10223000AF92BF92CF92DF92EF92FF920F931F93D4
:10224000CF93DF93EB018901841B950BBC01990FA0
:10225000880B990B0E94AA316B017C01BE01601BA7
:10226000710B072E000C880B990B0E94AA314B01B1
:102270005C01A7019601C701B6010E9409326B01FA
:102280007C01A5019401C501B4010E9409329B01A2
:10229000AC01C701B6010E943933DF91CF911F9184
:1022A0000F91FF90EF90DF90CF90BF90AF909F90F5
:1022B0008F900C944535CF92DF92EF92FF920F935F
:1022C0001F93CF93DF938B01E901BA01681B790B50
:1022D000072E000C880B990B0E94AA316B017C0120
:1022E000BE01601B710B072E000C880B990B0E941E
:1022F000AA31A7019601DF91CF911F910F91FF9015
:10230000EF90DF90CF900C94B8332F923F924F9282
:102310005F926F927F928F929F92AF92BF92CF9275
:10232000DF92EF92FF920F931F93CF93DF93CDB77E
:10233000DEB729970FB6F894DEBF0FBECDBF882E4B
:10234000082E000C9908F901E80DF91DFA83E983BC
:102350009081911118C1A62E062E000CBB082BE00F
:102360002A9DF0012B9DF00D1124E85EFE4F908117
:102370009F3F09F008C14203F0011124E85EFE4FBF
:102380002081298792E0980F943010F09EEF980FEB
:10239000E985E91709F4F7C0FD82EC821F830E83FB
:1023A0006B838887ABE06A02F0011124E85EFE4F80
:1023B0004A02D0011124A85EBE4F14962D913C9183
:1023C000159712964D915C916481758182819381FC
:1023D0000E945B1120EE3EE245E652E40E94093283
:1023E0002B013C0120E030E0A9010E94A33187FFCE
:1023F0000AC020E030E044EB53E4C301B2010E9484
:1024000039332B013C012091F5013091F6014091C7
:10241000F7015091F801C301B2010E9438330E94C4
:10242000500A0E948E348B01C090F101D090F201CD
:10243000E090F301F090F40120E030E040EA51E454
:10244000C701B6010E9438330E948E342B0120E070
:1024500030E040EA51E4C701B6010E9439330E94DE
:102460008E34AB01CB01041515052CF06DE270E044
:102470000817190774F184EB90E09C01241B350BBD
:10248000021713073CF08419950967E870E00817F4
:102490001907FCF0C2018D549F4F8017910744F437
:1024A000CA018D549F4F61EE70E0801791078CF444
:1024B00088E691E09C01241B350B021713073CF0C2
:1024C000841995096BE371E00817190714F070E09F
:1024D00060E0072E000C880B990B0E94AA312B019B
:1024E0003C01F8852AE5F20280011124B801675801
:1024F0007109072E000C880B990B0E94AA310E94CB
:10250000500AA30192010E94A331811109C088855C
:102510008F5F843011F4888583509985981319C092
:10252000B80169577F4F072E000C880B990B0E944A
:10253000AA310E94500AA30192010E94A331811185
:1025400022C08885815010F488858D5FE985E81761
:10255000D1F08BE08A9DF0018B9DF00D1124E85E97
:10256000FE4F2885208381E0E981FA8180838E8176
:102570009F81880E991E2B81F4012083EC81FD81BF
:1025800080818F5F808329960FB6F894DEBF0FBEDF
:10259000CDBFDF91CF911F910F91FF90EF90DF9012
:1025A000CF90BF90AF909F908F907F906F905F90F3
:1025B0004F903F902F9008958F929F92AF92BF922D
:1025C000CF92DF92EF92FF920F931F93CF93DF93FF
:1025D000CDB7DEB728970FB6F894DEBF0FBECDBFDC
:1025E00062E089E10E94820462E08BE10E94820441
:1025F00062E08CE10E94820468EC70E080E090E090
:102600000E94FA0489E10E94B3047C018BE10E94DC
:10261000B3048C018CE10E94B30421E0E21AF108BA
:10262000E3E8EE16E3E0FE0660F40150110903381A
:10263000134038F401978338934018F481E0809375
:10264000AB0268EC70E080E090E00E94FA0488E061
:10265000E0E7F1E0DE01119601900D928A95E1F735
:102660006091A6027091A70290E080E00E94F010B5
:102670009093A7028093A6026091A4027091A50294
:1026800081E090E00E94F0109093A5028093A40254
:102690001FE4E12E11E0F12E02E010E0F70161915C
:1026A00071917F01C8010E94F010F7013297918368
:1026B00080830F5F1F4F0630110581F760E170E0E6
:1026C00086E090E00E94F0107C0169E070E087E015
:1026D00090E00E94F0108C01B701FF0C880B990B61
:1026E0000E94AA316B017C01B801110F880B990B74
:1026F0000E94AA319B01AC01C701B6010E941C34A3
:102700006B017C01C0925E01D0925F01E09260019A
:10271000F0926101CE0101965C0108E010E0F50144
:10272000619171915F01C8010E94F010F50132972B
:10273000918380830F5F1F4F0C30110581F7B2E644
:10274000AB2EB1E0BB2EF50161915F0170E0C801D5
:102750000E94F010F501319780830F5F1F4F033106
:10276000110589F760915B0170E08EE190E00E94B5
:10277000F01080935B0160915C0170E08FE190E06C
:102780000E94F01080935C012EEB3FE94AEA5FE380
:10279000C701B6010E942A3518168CF02EEB3FE9CE
:1027A0004AEA5FE3C701B6010E94A33187FFEBC18C
:1027B0002BE43CE040E455E4C701B6010CC0A7019E
:1027C000960160E070E080E895E40E941C342EEBF6
:1027D0003FE94AEA5FE30E94093220E030E040E04E
:1027E0005FE30E9409324B015C01AC019B0160E098
:1027F00070E080E095E40E94383320E030E040E073
:102800005FE30E9439330E948E347093B502609367
:10281000B40220E030E040E055E4C501B4010E947C
:10282000393320E030E040E05FE30E9439330E941A
:102830008E347093B7026093B602A701960160E0F0
:1028400070E080E89FE30E94B83320EE3EE245E668
:1028500052E40E9409326B017C0120E030E0A901C2
:102860000E94A33187FF0AC020E030E044EB53E42C
:10287000C701B6010E9439336B017C01C092D101BE
:10288000D092D201E092D301F092D401C092F10132
:10289000D092F201E092F301F092F401A7019601C7
:1028A00060E070E084EB93E40E9438336093D501DC
:1028B0007093D6018093D7019093D801A701960118
:1028C00060E070E084E393E40E9438336093D901C0
:1028D0007093DA018093DB019093DC0120E030E01B
:1028E00044E353E4C701B6010E9439336093DD012C
:1028F0007093DE018093DF019093E0018B819C81D6
:1029000029813A8147E0D42ED092EC0311E0109354
:10291000FB033093EE032093ED039093F003809339
:10292000EF031092F20354E6F52EF092FE0361E0FD
:1029300087E00E9482044FEF60E08CEE93E00E94FB
:10294000810A8F8198852D813E8165E0E62EE09297
:10295000FF0310930E04309301042093000490931E
:1029600003048093020410930504F092110461E0C3
:1029700085E00E9482044FEF60E08FEF93E00E94B9
:10298000810A1093770480E3809378048FEF80931B
:10299000790410927C0481E380937D0410927E047C
:1029A0001092810492E39093820410938304109216
:1029B000860494E39093870402E0009388041093C4
:1029C0008B0495E390938C0473E0B72EB0928D0442
:1029D0001093900480939104E4E0CE2EC092920470
:1029E0001093950481E880939604E09297040093F5
:1029F0009A048AED80939B04F4E19F2E90929C04AC
:102A000000939F0487ED8093A004A5E1AA2EA092D5
:102A1000A1040093A40489ED8093A50486E180932A
:102A2000A6040093A90488ED8093AA0487E180930B
:102A3000AB0462E083E10E94820483E180934B0453
:102A400010924C0462E084E10E94820490924F0450
:102A50001093500462E085E10E948204A092530426
:102A60000093540462E088E10E94820488E180932C
:102A70005704B092580462E08AE10E9482048AE11D
:102A800080935F04C09260048091AB02882309F4B4
:102A90007FC0D092040162E08FE00E9482048FE048
:102AA00080935B0400935C0462E08EE00E948204E9
:102AB0008EE080936304E092640489E180931204C1
:102AC0001093210492E3A92EB12CB0921404A09289
:102AD00013042CE3C22ED12CD0921604C0921504FC
:102AE00010931804F092240461E00E9482044FEFD6
:102AF00060E082E194E00E94810A8BE180932504EA
:102B000010933404B0922704A0922604D092290492
:102B1000C092280410932B04F092370461E00E94C5
:102B200082044FEF60E085E294E00E94810A8CE12C
:102B30008093380410934704B0923A04A092390469
:102B4000D0923C04C0923B0410933E04F0924A049D
:102B500061E00E9482044FEF60E088E394E02896F1
:102B60000FB6F894DEBF0FBECDBFDF91CF911F919E
:102B70000F91FF90EF90DF90CF90BF90AF909F901C
:102B80008F900C94810A60E070E080E895E425CE97
:102B900062E089E10E94820489E180935B040093F2
:102BA0005C0462E08BE10E9482048BE18093630409
:102BB000E092640462E08FE00E9482048FE08093E0
:102BC0006704D092680462E08CE10E9482048CE188
:102BD00080936B0488E080936C0462E08EE00E9436
:102BE00082048EE080936F0489E08093700462E039
:102BF00080E10E94820480E1809373048AE08093E4
:102C0000740428960FB6F894DEBF0FBECDBFDF91D7
:102C1000CF911F910F91FF90EF90DF90CF90BF90D9
:102C2000AF909F908F9008952F923F924F925F9216
:102C30006F927F928F929F92AF92BF92CF92DF92CC
:102C4000EF92FF920F931F93CF93DF93CDB7DEB731
:102C5000C654D1090FB6F894DEBF0FBECDBF2DB755
:102C60003EB727963FAF2EAF27978091EA0391E0BA
:102C7000909303038093250310920403109226037C
:102C800086E390E00E942C0781E00E94A10160E1B0
:102C900070E08091EA039091EB030E94A90E1091DD
:102CA000BA028091BB02412F481B550B40315105A0
:102CB00009F0EDC28E010F5F1F4F6E0151E1C50E8D
:102CC000D11C780187E793E00E94B606D7018D9367
:102CD0007D01CA16DB06B1F7E0EDF3E0FB8FEA8F6A
:102CE00048EE53E0D80113968C91282F30E0D9019B
:102CF00064E0AA0FBB1F6A95E1F77D01EE2493E023
:102D0000F922D80111966C9111976E0D7F2D711DCE
:102D100071836083220F331F220F331F22273370EA
:102D200012969C91290F311D338322838F7090E07E
:102D3000958384830D5F1F4F36964E175F0791F67C
:102D40008091780190917901A0917A01B0917B01F5
:102D50008D8B9E8BAF8BB88F898B9A8BAB8BBC8BFB
:102D600019821A821B821C824091A6025091A702EE
:102D700026EF2403F001259FF00D1124F8ABEFA7F7
:102D80004091A4025091A5022403C001259F900DFB
:102D900011249CAB8BAB2091F5013091F601409151
:102DA000F7015091F8012BA73CA74DA75EA75058FB
:102DB0002AA33BA34CA35DA348E151E05F8F4E8F54
:102DC0008A01212C1EA2312CAA8DBB8D8D919C9144
:102DD000BAE0B89FB001B99F700D1124EA8DFB8D48
:102DE00082819381B89F3001B99F700C1124248196
:102DF000663FF7E27F0731F436EF631637E273067A
:102E000009F454C24FA558A9640F751F8BA99CA93A
:102E1000680E791ED80112968D919C91FB01E81BDA
:102E2000F90BCF01F7FF03C0919581959109893E78
:102E3000934084F4D80114968D919C91F301E81B82
:102E4000F90BCF01F7FF03C0919581959109893E58
:102E5000934044F0D8018C918F3F21F0EFEFEC9339
:102E600011961C92D80113967C936E931297159627
:102E70007C926E921497663FB7E27B0751F4E6EFBF
:102E80006E16E7E27E0629F4EFEFD801EC93119677
:102E90001C92D8011A962C937451072E000C880BA3
:102EA000990B0E94AA316FA378A789A79AA720E05F
:102EB00030E044E353EC6BA57CA58DA59EA50E9454
:102EC000A33187FFEEC120E030E044EB53E46AA178
:102ED0007BA18CA19DA10E943833F62FE72FDC0146
:102EE00025E33AEF4EE85CE36F2F7E2FCD010E9481
:102EF00009324B015C010E9417346B017C01B30164
:102F00007F50072E000C880B990B0E94AA312B01D1
:102F10003C01C501B4010E9437354B015C01A7019A
:102F200096016FA178A589A59AA50E9409326DAB7B
:102F30007EAB8FAB98AFA5019401C301B2010E9493
:102F400009329B01AC016DA97EA98FA998AD0E94A1
:102F5000383320E030E040EA55E40E9439330E94E3
:102F60008E34F80177836683A50194016FA178A55B
:102F700089A59AA50E9409324B015C01A301920127
:102F8000C701B6010E9409329B01AC01C501B40121
:102F90000E94393320E030E040E755E40E943933A5
:102FA0000E948E34D80119967C936E931897E5E1B0
:102FB000F0E0EC0FFD1FBEA1EB0FF11D3082BF5FF3
:102FC000BEA3F80180818F3FA1F02394082E000C4E
:102FD000990BE1E0F0E0EC0FFD1FE80FF91F21E095
:102FE000208341E150E04C0F5D1F840F951FDC01F1
:102FF0003C9233944A8D5B8D4A5F5F4F5B8F4A8F63
:10300000055F1F4F54E03512DFCE298E81E09EA16F
:10301000911180E080936901AEA1A33008F454C1FE
:1030200084E491E0E8E1F1E02FEF3181BEA13B17AC
:1030300010F4208311823B968E179F07B1F7EDB7EE
:10304000FEB7FCA7EBA73EA1232F30E03BA32AA3AA
:10305000215031093B8F2A8F4DB75EB78AA19BA1C2
:10306000481B590B0FB6F8945EBF0FBE4DBFADB7EE
:10307000BEB711964D01EDB7FEB7E81BF90B0FB6C1
:10308000F894FEBF0FBEEDBF2DB73EB72F5F3F4F89
:103090005901CE014596AD01B901FC012191DA013A
:1030A0002D93AD01DB012D93BD012E2F281BBEA159
:1030B0002B17A0F3D401119691E07BE06D918FEF77
:1030C000890F6703F0011124E85EFE4F46815781A6
:1030D000282F082E000C330BF401E20FF31F108190
:1030E0002F5F3F4F7401E20EF31E1703900111246E
:1030F000285E3E4FF901268137814217530724F499
:10310000F7011083815020F7F401E80FF11D87FDCE
:10311000FA9561839F5FFEA19F1780F2D5011196FA
:1031200091E07BE06D918FEF890F6703F00111242F
:10313000E85EFE4F40855185282F082E000C330B8A
:10314000F501E20FF31F10812F5F3F4F7501E20E73
:10315000F31E170390011124285E3E4FF9012085CC
:1031600031854217530724F4F7011083815020F76B
:10317000F501E80FF11D87FDFA9561839F5FFEA1C0
:103180009F1780F2D4011196CC901197EC2D0C2C46
:10319000000CFF0BF8ABEFA7DC902D2D0D2C000CD5
:1031A000330B38A72FA38BE04D2D4802900111243B
:1031B000D901A85EBE4F7D01BC2DB802C00111240B
:1031C000FC01E85EFE4F1F0124813581428153815D
:1031D000D70114966D917C91159712968D919C91C3
:1031E0000E9416112B013C0120E030E84BEB55E426
:1031F0000E942A3518162CF44FEF60E080E00E9400
:10320000E50B898DBEA1B23009F072C1813009F0A1
:1032100093C2AE01475E5F4F7A018E010F5E1F4F72
:103220009E012F5F3F4F4C2D6D2D82E00E94851136
:10323000CAA0DBA052E0C51AD108D401AC0DBD1D57
:10324000EA8DFB8DE80DF91D9E012F5F3F4F4C91DC
:10325000608180E00E948511D501AC0DBD1DEA8D15
:10326000FB8DEA0DFB1D9701285131094C916081BE
:1032700081E00E9485119E012F5F3F4FD50111967D
:103280004C9111976C9183E00E94851132C280911C
:10329000BB02181709F4ABC587E793E00E94B60696
:1032A000F6CFFAA1EBA1ACA1BDA11ACEF8017382B1
:1032B0006282758264822FEF208311821286778268
:1032C00066827186608695CE3EA1323009F4B7CE13
:1032D000998D9AA384E491E0AE8DBF8D11962C91C7
:1032E000BAA12B1730F4EE8DFF8D20812F3F09F00E
:1032F000B1834E8D5F8D455F5F4F5F8F4E8F84171B
:10330000950751F75AA1552309F427C5BB80BB2067
:1033100009F4FAC28981882309F4F6C2AB892BE04B
:10332000A202D0011124A85EBE4FE989E202F00199
:103330001124E85EFE4F2481358142815381149629
:103340006D917C91159712968D919C910E945B11C5
:1033500020EE3EE245E652E40E9409322B013C0198
:1033600020E030E0A9010E94A33187FF0AC020E0DD
:1033700030E044EB53E4C301B2010E9439332B0126
:103380003C011C81112309F4C3C28A81882309F4FA
:10339000BFC2EC898BE0E802F0011124E85EFE4F29
:1033A000AA89A802D0011124A85EBE4F14962D91BF
:1033B0003C91159712964D915C9164817581828143
:1033C00093810E945B1120EE3EE245E652E40E94AA
:1033D00009326B017C0120E030E0A9010E94A33199
:1033E00087FF0AC020E030E044EB53E4C701B60198
:1033F0000E9439336B017C018AA1813009F01AC522
:10340000DE0111966D0121EEE22E21E0F22E10E098
:1034100000E0702EF60181916F01882309F4D5C276
:10342000D7018D909D90AD90BC9020E030E0A90137
:10343000C501B4010E94A331882309F4C6C2FE016C
:10344000E00FF11FE189C090F501D090F601E09006
:10345000F701F090F8010E2F0E2E000C110BBBE0BF
:10346000EB02F0011124E85EFE4F62817381272D8B
:103470002D7F072E000C880B990B21114DC20E9445
:10348000AA312B013C0120E030E044E353E4C701C2
:10349000B6010E942A35181654F420E030E044EBBF
:1034A00053E4C701B6010E9438336B017C0125E368
:1034B0003AEF4EE85CE3C701B6010E9409326B01A6
:1034C0007C010E9417349B01AC01C501B4010E942C
:1034D0000932A30192010E9439330E948E34709305
:1034E000470160934601C701B6010E9437354EC2BD
:1034F000EEA18E1710F00C944F24E43009F089CE21
:1035000084E0898F2BE04FA158A5249FF001259FCF
:10351000F00D1124E85EFE4F82E0808381E08B8312
:10352000DB8AD40113961C911203F0011124E85E8A
:10353000FE4F10828983198BF5018381D81619F00B
:10354000E3E0181301C0E2E0EA0DFB2DF11D00815C
:103550002BE00202F0011124E85EFE4F81E080833F
:103560008A830A8BD5019C91D91609F4CAC0191314
:1035700080E0A80EB11CF501C0802BE03C2D320389
:10358000F0011124E85EFE4F83E0808381E08C83AC
:10359000CC8AD70112962D903C9013971496ED91FA
:1035A000FC91FBA3EAA31202F0011124E85EFE4F96
:1035B000E280F380248135813B8F2A8FA7016AA1A5
:1035C0007BA1C1010E9416114B015C0120E030E09B
:1035D000A9010E942A35181624F0B7FAB094B7F85A
:1035E000B094ABE03C2D3A02F0011124E85EFE4FAE
:1035F0000A02D0011124A85EBE4F14962D913C9171
:10360000159712964D915C916481758182819381A9
:103610000E9416112B013C0120E030E0A9010E941C
:103620002A35181624F077FA709477F87094A5016B
:103630009401C301B2010E941C3423E333E343E944
:103640005FE30E942A3518160CF053C02A8D3B8D7B
:10365000A7016AA17BA1C1010E945B1120EE3EE29D
:1036600045E652E40E9409324B015C0120E030E063
:10367000A9010E94A33187FF0AC020E030E044EB9B
:1036800053E4C501B4010E9439334B015C01C5010B
:10369000B4010E94500A4B015C0120E030E044EB91
:1036A00052E40E94A331181674F11A8BC98ADC8A7D
:1036B0000B8B39892BE03203F0011124E85EFE4FB9
:1036C00010823A893203F0011124E85EFE4F81E056
:1036D00080833B893203F0011124E85EFE4F82E0D3
:1036E00080833C893203F0011124E85EFE4F83E0C1
:1036F00080838BA59CA50FB6F8949EBF0FBE8DBF8F
:10370000E7CD81E036CF20E030E047E853E4C50163
:10371000B4010E942A3587FDCCCF20E030E044EB95
:1037200053E4C501B4010E94A331181614F2DA8AD9
:10373000CB8A1C8B098BBDCF8111DBCF20E030E819
:103740004BEB55E4C301B2010E942A3518168CF2E6
:10375000F5018081D81281C0D7011296AD90BC903E
:10376000139714968D909C9020E03EE150E040E04D
:10377000B401C5010E9416112B013C01F101028127
:103780001381E480F58020E03EE150E040E0B701A5
:10379000C8010E9416119B01AC01C301B2010E9435
:1037A00039332B013C0130E020E050E040E0B4012F
:1037B000C5010E9416114B015C0130E020E050E091
:1037C00040E0B701C8010E9416119B01AC01C50180
:1037D000B4010E9439339B01AC01C301B2010E94C4
:1037E0002A3518160CF088C0E2E0F0E081E090E0A5
:1037F0003BE04FA158A5349FD001359FB00D112457
:10380000A85EBE4FEC93A1E0B0E0AC0FBD1FAE0FC1
:10381000BF1F21E02C93A1E1B0E0AC0FBD1FEA0F68
:10382000FB1FD0824FA558A9349FF001359FF00DA2
:103830001124E85EFE4F8083A1E0B0E0AC0FBD1F15
:10384000A80FB91F2C93E1E1F0E0EC0FFD1FE80F8A
:10385000F91FC08282E0898F4CCF8181D81249CF75
:10386000F701A280B3808480958020E03EE140E0B3
:1038700058E2B401C5010E9416112B013C01D1018F
:1038800012960D911C9113971496ED90FC9020E0E8
:103890003EE140E058E2B701C8010E9416119B01C9
:1038A000AC01C301B2010E9439332B013C0130E06D
:1038B00020E040E058E2B401C5010E9416114B011E
:1038C0005C0130E020E040E058E2B701C8010E940E
:1038D00016119B01AC01C501B4010E9439339B0153
:1038E000AC01C301B2010E942A35181654F0E2E07F
:1038F000F0E083E090E07CCFE3E0F0E090E080E077
:1039000077CFE1E0F0E0FACF412C512C320139CDF4
:10391000C12CD12C760170CD0E94AA312B013C0123
:1039200020E030E044E353E4C701B6010E942A35A9
:10393000181654F420E030E044EB53E4C701B6011C
:103940000E9438336B017C0125E33AEF4EE85CE3DB
:10395000C701B6010E9409326B017C010E94373514
:103960009B01AC01C501B4010E9409329B01AC016D
:10397000C301B2010E9438330E948E347093470114
:1039800060934601C701B6010E9417346B017C01A8
:103990008BE0809FF001819FF00D1124E85EFE4FC7
:1039A00064817581072E000C880B990B0E94AA3147
:1039B0002B013C01A7019601C501B4010E94093207
:1039C0009B01AC01C301B20132C30F5F1F4FE4E0A2
:1039D000EE0EF11C0430110509F01BCD8091D001D1
:1039E000882309F4BAC14090F5015090F601609027
:1039F000F7017090F801A0904801B09049016091E2
:103A0000460170914701072E000C880B990B0E940C
:103A1000AA3120E030E040EA55E40E9438339B01AF
:103A2000AC0150582E8F3F8F48A359A373016201F8
:103A3000F7FAF094F7F8F09420E030E044E353EC28
:103A4000C301B2010E94A33187FF0AC020E030E029
:103A500044EB53E4C701B6010E9438336B017C018B
:103A600025E33AEF4EE85CE3C701B6010E94093254
:103A70006B017C010E9417342B013C01B501BB0C8A
:103A8000880B990B0E94AA3120E030E040E755E412
:103A90000E9438334B015C01C701B6010E943735E3
:103AA0006A8F7B8F8C8F9D8FA30192016E8D7F8D8E
:103AB00088A199A10E9409326B017C012A8D3B8D5E
:103AC0004C8D5D8DC501B4010E9409329B01AC0192
:103AD000C701B6010E94393320E030E040EA55E4E6
:103AE0000E9439336B017C01C501B4019058A301D8
:103AF00092010E9409324B015C012A8D3B8D4C8D55
:103B00005D8D6E8D7F8D88A199A10E9409329B01E8
:103B1000AC01C501B4010E94393320E030E040E738
:103B200055E40E9439334B015C012091E101309151
:103B3000E2014091E3015091E401C701B6010E9406
:103B400038336E8F7F8F88A399A32091ED01309138
:103B5000EE014091EF015091F001C501B4010E94C6
:103B600038332B013C01AC019B0160E070E080E741
:103B700095E40E9438336A8F7B8F8C8F9D8F2091C4
:103B8000E5013091E6014091E7015091E801C5015E
:103B9000B4010E943833A30192010E9438339B0183
:103BA000AC016A8D7B8D8C8D9D8D0E941C3420E034
:103BB00030E040E855E40E94093220E030E0A901FD
:103BC0000E94393320E030E040E05FE30E94393367
:103BD0000E948E346A8F7B8F8C8F9D8F60914F01F6
:103BE00070915001072E000C880B990B0E94AA318E
:103BF0002B013C012E8D3F8D48A159A160E070E062
:103C000080EA95E40E9438334B015C012091E90180
:103C10003091EA014091EB015091EC01C701B601EE
:103C20000E9438332E8D3F8D48A159A10E94383310
:103C30009B01AC01C501B4010E941C3420E030E0BE
:103C400040E855E40E94093220E030E0A9010E94DA
:103C5000393320E030E040E05FE30E9439330E94D6
:103C60008E34072E000C880B990B0E94AA31A301F9
:103C700092010E9438336B017C0160915101709177
:103C80005201072E000C880B990B0E94AA31A30148
:103C900092010E9438339B01AC01C701B6010E941A
:103CA0001C3420E030E040E855E40E94093220E076
:103CB00030E0A9010E94393320E030E040E05FE3CA
:103CC0000E9439330E948E347093B3026093B20223
:103CD0006091530170915401072E000C880B990BD1
:103CE0000E94AA316B017C014A8D5B8DBA01550F90
:103CF000880B990B0E94AA31A70196010E943833C4
:103D00004B015C016091550170915601072E000C2A
:103D1000880B990B0E94AA31A70196010E943833A3
:103D20009B01AC01C501B4010E941C3420E030E0CD
:103D300040E855E40E94093220E030E0A9010E94E9
:103D4000393320E030E040E05FE30E9439330E94E5
:103D50008E347093B1026093B0025EA1533030F0A4
:103D6000A52FEAA1AE1BBB0B1297E4F4C090F5019E
:103D7000D090F601E090F701F090F80120E030E0FB
:103D800044EB52E4C701B6010E94A33187FD2FC066
:103D900020E030E047E853E4C701B6010E942A352D
:103DA00018162CF18FEF809318011092190180934F
:103DB00023011092240180932E0110922F018093F1
:103DC000390110923A011092F5011092F601109209
:103DD000F7011092F80180E090E0A4EBB2E4809348
:103DE000000190930101A0930201B0930301279673
:103DF0002EAD3FAD27970FB6F8943EBF0FBE2DBF37
:103E0000CA5BDF4F0FB6F894DEBF0FBECDBFDF91A8
:103E1000CF911F910F91FF90EF90DF90CF90BF90C7
:103E2000AF909F908F907F906F905F904F903F905A
:103E30002F900895FAA1F23009F0CDC1BB2009F40A
:103E40003DC18A81882309F4FBC0AB892BE0A20223
:103E5000D0011124A85EBE4FEA89E202F0011124CC
:103E6000E85EFE4F248135814281538114966D9125
:103E70007C91159712968D919C910E945B1120EE7A
:103E80003EE245E652E40E9409326B017C0120E0EB
:103E900030E0A9010E94A33187FF0AC020E030E092
:103EA00044EB53E4C701B6010E9439336B017C0136
:103EB0002091D1013091D2014091D3015091D40190
:103EC000C701B6010E9438330E94500A6B017C0181
:103ED00002E010E0F801EE0FFF1FEE0FFF1FEF51A1
:103EE000FE4F408051806280738020E030E0A90165
:103EF000C301B2010E94A331882309F46FCDB11030
:103F000004C08981882309F469CD2091F50130919D
:103F1000F6014091F7015091F801C701B6010E94E6
:103F200038339B01AC0160910001709101018091D7
:103F30000201909103010E94393360930001709354
:103F400001018093020190930301C092F501D09288
:103F5000F601E092F701F092F801FE01E00FF11F87
:103F6000E1890E2F0E2E000C110B2BE0E202F00166
:103F70001124E85EFE4F62817381072E000C880BCE
:103F8000990B0E94AA314B015C0120E030E044E330
:103F900053E4C701B6010E942A35181654F420E0F4
:103FA00030E044EB53E4C701B6010E9438336B01A3
:103FB0007C0125E33AEF4EE85CE3C701B6010E94BD
:103FC00009326B017C010E9417349B01AC01C301D3
:103FD000B2010E940932A50194010E9439330E9466
:103FE0008E347093470160934601C701B6010E9469
:103FF00037356B017C018BE0809FF001819FF00DD4
:104000001124E85EFE4F64817581072E000C880B39
:10401000990B0E94AA314B015C01A7019601C301D3
:10402000B2010E9409329B01AC01C501B4010E949A
:1040300039330E948E347093490160934801CECC8D
:104040001123E1F1AB892BE0A202D0011124A85E7B
:10405000BE4FEC89E202F0011124E85EFE4F24819C
:1040600035814281538114966D917C9115971296FA
:104070008D919C910E945B1120EE3EE245E652E458
:104080000E9409326B017C0120E030E0A9010E940E
:10409000A33187FF0AC020E030E044EB53E4C701BE
:1040A000B6010E9439336B017C012091D50130911A
:1040B000D6014091D7015091D80102CF8981882340
:1040C00009F48CCC8A81882309F446C0A9892BE0A5
:1040D000A202D0011124A85EBE4FEA89E202F001DB
:1040E0001124E85EFE4F248135814281538114966C
:1040F0006D917C91159712968D919C910E945B1108
:1041000020EE3EE245E652E40E9409326B017C015A
:1041100020E030E0A9010E94A33187FF0AC020E01F
:1041200030E044EB53E4C701B6010E9439336B0120
:104130007C012091D9013091DA014091DB0150914D
:10414000DC01C701B6010E9438330E94500A6B019E
:104150007C0110E000E0BECE112309F43FCCA98918
:104160002BE0A202D0011124A85EBE4FEC89E2022E
:10417000F0011124E85EFE4F248135814281538194
:1041800014966D917C91159712968D919C910E9439
:104190005B1120EE3EE245E652E40E9409326B01DB
:1041A0007C0120E030E0A9010E94A33187FF0AC012
:1041B00020E030E044EB53E4C701B6010E943933FC
:1041C0006B017C012091DD013091DE014091DF0126
:1041D0005091E001B6CF3AA1333009F09BC0BB202B
:1041E00009F464C38981882309F460C02091F50132
:1041F0003091F6014091F7015091F801C301B201ED
:104200000E94383320910001309101014091020158
:10421000509103010E9439330E94500A60930001BB
:104220007093010180930201909303014092F50184
:104230005092F6016092F7017092F80102E010E0EE
:10424000F801EE0FFF1FEE0FFF1FEF51FE4F8080B2
:104250009180A280B38020E030E0A901C501B401C3
:104260000E94A331882309F4B9CBFE01E00FF11FAE
:10427000E1890E2F0E2E000C110B4BE0E402F00131
:104280001124E85EFE4F62817381072E000C880BBB
:10429000990B0E94AA312B013C01C090F501D090EE
:1042A000F601E090F701F090F801EDC8112331F22A
:1042B0008A81882341F120910001309101014091D0
:1042C000020150910301C701B6010E9438332091C9
:1042D000F5013091F6014091F7015091F8010E94EB
:1042E00039330E94500A6093F5017093F601809370
:1042F000F7019093F801C0920001D0920101E09281
:104300000201F0920301B11099CF098181E00827E1
:10431000019595CF5AA1543009F060CB4092F50138
:104320005092F6016092F7017092F801C09200017C
:10433000D0920101E0920201F09203018A898BABD5
:104340002BE0382F320380011124085E1E4FD80164
:1043500014966D917C91072E000C880B990B0E948E
:10436000AA316E8F7F8F88A399A3F8016281738130
:10437000072E000C880B990B0E94AA314B015C019F
:10438000FC89FDAB2BE03F2F320380011124085E36
:104390001E4FD80114966D917C91072E000C880B4E
:1043A000990B0E94AA316A8F7B8F8C8F9D8FF801A9
:1043B00062817381072E000C880B990B0E94AA3131
:1043C0006FA378A789A79AA729882BE0322D3203FB
:1043D00080011124085E1E4FD80114966D917C91C6
:1043E000072E000C880B990B0E94AA316BA77CA7A3
:1043F0008DA79EA7F80162817381072E000C880BA0
:10440000990B0E94AA316B017C013B882BE0332D74
:10441000320380011124085E1E4FD80114966D915D
:104420007C91072E000C880B990B0E94AA316FA774
:1044300078AB89AB9AABF80162817381072E000CCF
:10444000880B990B0E94AA3121966CAF7DAF8EAF7D
:104450009FAF21972FA538A949A95AA9C701B6012D
:104460000E94093269AF7AAF8BAF9CAF21962CAD19
:104470003DAD4EAD5FAD21976BA57CA58DA59EA5ED
:104480000E9409329B01AC0169AD7AAD8BAD9CAD48
:104490000E94383369AF7AAF8BAF9CAF2FA138A59C
:1044A00049A55AA5C501B4010E94383325966CAFC1
:1044B0007DAF8EAF9FAF25972A8D3B8D4C8D5D8D47
:1044C000C501B4010E9409324B015C012FA138A53E
:1044D00049A55AA56E8D7F8D88A199A10E940932A8
:1044E0009B01AC01C501B4010E9438336FA378A7CA
:1044F00089A79AA721962CAD3DAD4EAD5FAD219712
:10450000C701B6010E9438334B015C012A8D3B8DF7
:104510004C8D5D8D6E8D7F8D88A199A10E94383361
:104520006A8F7B8F8C8F9D8F2FA538A949A95AA997
:104530006BA57CA58DA59EA50E9438336BA77CA793
:104540008DA79EA72A8D3B8D4C8D5D8DC501B40135
:104550000E9409326B017C012BA53CA54DA55EA5EF
:1045600025966CAD7DAD8EAD9FAD25970E9409322D
:104570009B01AC01C701B6010E9438336B017C017D
:1045800025962CAD3DAD4EAD5FAD259769AD7AADAD
:104590008BAD9CAD0E9409326E8F7F8F88A399A34B
:1045A000A50194016FA178A589A59AA50E94093259
:1045B0009B01AC016E8D7F8D88A199A10E9438333B
:1045C000A70196010E941C340E948E346E8F7F8F4B
:1045D00088A399A32E8D3F8D3093470120934601E8
:1045E0002A8D3B8D4C8D5D8D69AD7AAD8BAD9CADCB
:1045F0000E9409324B015C012BA53CA54DA55EA58F
:104600006FA178A589A59AA50E9409329B01AC01EA
:10461000C501B4010E943833A70196010E941C34E1
:104620000E948E346B017093490160934801332DD1
:104630004BE03402F0011124E85EFE4F8281938149
:104640009B8F8A8FA481B581B8A7AFA396014E8DA9
:104650005F8DBD010E9416116093E9017093EA011C
:104660008093EB019093EC01B22D2BE0B202F001AC
:104670001124E85EFE4F428153815CA74BA78481E1
:10468000958198AB8FA79C01B6018E8D9F8D0E945E
:10469000161190586093E1017093E2018093E30159
:1046A0009093E4019DA9ABE09A02F0011124E85E29
:1046B000FE4F228033808480958096014E8D5F8DE1
:1046C000B401C1010E9416116093ED017093EE01D7
:1046D0008093EF019093F001BBA92BE0B202F001AF
:1046E0001124E85EFE4FA280B380048115819801F9
:1046F000A501B6018E8D9F8D0E9416119058609372
:10470000E5017093E6018093E7019093E801980139
:10471000A5016FA178A58A8D9B8D0E945B1120EE6B
:104720003EE245E652E40E9409326B017C0120E042
:1047300030E0A9010E94A33187FF0AC020E030E0E9
:1047400044EB53E4C701B6010E9439336B017C018D
:10475000A3019201C701B6010E9438330E94500A9A
:104760006093D1017093D2018093D3019093D401CF
:104770009401A1016FA178A58A8D9B8D0E945B1188
:1047800020EE3EE245E652E40E9409326B017C01D4
:1047900020E030E0A9010E94A33187FF0AC020E099
:1047A00030E044EB53E4C701B6010E9439336B019A
:1047B0007C01A3019201C701B6010E9438330E9417
:1047C000500A6093D5017093D6018093D7019093DE
:1047D000D8019801A5016FA578A98BA59CA50E9479
:1047E0005B1120EE3EE245E652E40E9409326B0185
:1047F0007C0120E030E0A9010E94A33187FF0AC0BC
:1048000020E030E044EB53E4C701B6010E943933A5
:104810006B017C01A3019201C701B6010E943833EC
:104820000E94500A6093D9017093DA018093DB01F2
:104830009093DC019401A1016FA578A98BA59CA59B
:104840000E945B1120EE3EE245E652E40E940932EE
:104850006B017C0120E030E0A9010E94A33187FFB9
:104860000AC020E030E044EB53E4C701B6010E94E7
:1048700039336B017C01A3019201C701B6010E948B
:1048800038330E94500A6093DD017093DE018093FB
:10489000DF019093E00181E08093D0019FC8FEA1E9
:1048A000F43011F40C94801A0C94791B111100CD82
:1048B0002CCD1F920F920FB60F9211248F939F93BE
:1048C0008091E1009091E100937F9093E10083FF5C
:1048D0000FC01092E90091E09093EB001092EC0071
:1048E00092E39093ED001092B90298E09093F0005B
:1048F00082FF22C093E09093E9009091F200992307
:1049000019F09AE39093E80090919D02992341F069
:1049100090919D02915090939D02911101C05D9ADA
:104920009091B802992341F09091B80291509093E0
:10493000B802911101C0289A84FF18C08091E2004A
:104940008E7E81608093E2008091E1008F7E809373
:10495000E10080919E028E7E806180939E029F91F5
:104960008F910F900FBE0F901F90189580FFF7CF7B
:104970008091E2008E7E80618093E2008091E10070
:104980008E7E8093E10080919E028E7E8160E5CFD5
:104990001F920F920FB60F921124CF92DF92EF92D7
:1049A000FF920F931F932F933F934F935F936F93B8
:1049B0007F938F939F93AF93BF93EF93FF93CF9387
:1049C000DF93CDB7DEB76C97DEBFCDBF1092E900A5
:1049D0008091E80083FF25C068E0CE0145960E94E3
:1049E000C30282EF8093E8008D8987FF39C09091E0
:1049F000E80090FFFCCF982F907609F034C19E8993
:104A00004F89588D2F89F88C911131C0803861F50C
:104A100080919F028093F1001092F1008EEF8093BD
:104A2000E8006C960FB6F894DEBF0FBECDBFDF91E5
:104A3000CF91FF91EF91BF91AF919F918F917F9116
:104A40006F915F914F913F912F911F910F91FF9027
:104A5000EF90DF90CF900F900FBE0F901F901895A2
:104A60009EEF9093E800C7CF1092F100D5CF913020
:104A700059F48111D3CF4130510581F680919F02C5
:104A80008D7F80939F02CACF933049F48111C6CFA6
:104A90004130510519F680919F028260F2CF953026
:104AA00041F48091E80080FFFCCF20682093E30070
:104AB000B5CF963009F0A9C00B8D1C8D22E0109265
:104AC000E90010929B0210929A02F2122EC01092EC
:104AD0009902109298020E94E4021F8299E0998341
:104AE000FA8291E09E8390EA98879AEF99872091C5
:104AF0009A0230919B02275F3F4F3C832B838D832B
:104B00001092E90010929B0210929A02109399025F
:104B10000093980249E050E0BE016F5F7F4F80E054
:104B20000E948C020E94E40279CF109399020093B4
:104B300098020E94D002DC0112960D911C91011581
:104B4000110509F451C1D801ED91FC910480F58162
:104B5000E02DBE016B5E7F4FC8010995009709F0FB
:104B60003EC1F80100851185EACFF3E0FF120EC0C7
:104B70008F89882309F440C0823061F440E860E105
:104B80008FE692E00E945902811148CF81E2809322
:104B9000EB0047CF813029F440E86BE083E692E0F8
:104BA000F1CF833099F70E94D002DC011296ED908C
:104BB000FC908E010F5F1F4F6801E114F10479F042
:104BC000D701ED91FC910680F781E02DB801C70176
:104BD0000995080F111DF701E084F184EECFD8018B
:104BE0001C92F60101900020E9F73197BF016C1982
:104BF0007D0940E0C601C6CF6DE472E0FB0144913F
:104C000050E080E80E948C0209CF973009F4BECFB3
:104C1000983021F481E08093F10000CF993009F0C1
:104C2000FDCE837009F0B2CFE6E0F1E081E031E043
:104C300096E32191222371F08093E9003093EB00F9
:104C4000DF0111972C912093EC009093ED008F5F82
:104C5000873079F78EE78093EA001092EA008F8917
:104C60008093B902DBCE8B8D9C8D1092E90010925F
:104C70009B0210929A029093990280939802898DD8
:104C8000811192C08E899D89913A49F4813209F04F
:104C90007DCF47E050E060E171E080E0B3CF91323A
:104CA00009F074CF833269F48F89988DB0E0A0E069
:104CB00080930C0190930D01A0930E01B0930F010E
:104CC000ADCE803269F48091E80082FFFCCF67E0CE
:104CD00080E191E00E94C3028BEF8093E8009ECEBA
:104CE000823209F09BCE8F8980931701EEEFFFE7A8
:104CF000859194918B3F9C4D51F1E0E0F8E08091DB
:104D0000100190911101A0911201B0911301803B0B
:104D10009440A105B105F1F48091170180FD1AC0FE
:104D2000EE3F8AE0F80789F587E797E7918380836C
:104D30008091600080939C0288E19BE00FB6F8941C
:104D4000A895809360000FBE9093600067CEEEEF51
:104D5000FAE0D5CF808191818737974709F05ECE01
:104D6000A8958091600088618093600080919C028A
:104D700080936000EE3F2AE0F20789F08091FE0AFE
:104D80009091FF0A9183808349CE808191818737FA
:104D9000980751F29093FF0A8093FE0AC5CF1092B4
:104DA000FF0A1092FE0A3ACE0E94D002DC0112964F
:104DB0000D911C910115110509F4E8CED801ED9172
:104DC000FC910190F081E02DBE016B5E7F4FC80128
:104DD0000995811123CEF80100851185EBCF1816B6
:104DE00019060CF41BCED2CEF1E0FF12BECE61E567
:104DF00072E004CF1F920F920FB60F9211242F93DF
:104E00003F938F939F93AF93BF9380918402909130
:104E10008502A0918602B09187023091830223E03F
:104E2000230F2D3758F50196A11DB11D2093830244
:104E30008093840290938502A0938602B0938702A8
:104E40008091880290918902A0918A02B0918B0290
:104E50000196A11DB11D8093880290938902A093B1
:104E60008A02B0938B02BF91AF919F918F913F9136
:104E70002F910F900FBE0F901F90189526E8230FCB
:104E80000296A11DB11DD2CF1F920F920FB60F92A5
:104E900011242F933F934F935F936F937F938F933F
:104EA0009F93AF93BF93EF93FF938091B900887F57
:104EB000803609F44AC0F0F5883209F4A7C018F525
:104EC000803109F49BC0B8F4882309F4F9C0883014
:104ED00009F494C0FF91EF91BF91AF919F918F9191
:104EE0007F916F915F914F913F912F910F900FBEE6
:104EF0000F901F901895883109F488C0803251F7BF
:104F00008093000314C0803409F49DC040F48033C2
:104F1000B9F38833F9F68093000385ECB0C080358F
:104F200009F485C0883509F496C0883499F60E9442
:104F30007606D0CF883909F48CC038F5883729F047
:104F400050F4883611F0803729F683E0809302030D
:104F50001092820257C0883809F47BC0803919F05A
:104F6000803809F0B7CF80918202803208F071C09A
:104F7000E091820281E08E0F809382028091BB00DB
:104F8000F0E0EE59FD4F80833DC0803B39F0E0F406
:104F9000803A09F479C0883A09F09CCF84E0809384
:104FA00002031092610210926002E091A202F0915D
:104FB000A30209958091600281110FC081E0809366
:104FC00060021092400209C0803C09F4A6CF883CE0
:104FD00009F4A3CF883B09F07DCFE091610281E025
:104FE0008E0F80936102F0E0E05CFD4F8081809342
:104FF000BB00909161028091600229C08091DD0226
:105000008093BB0085EC8093BC0064CF9091FF023D
:105010008091FE02981758F5E091FF0281E08E0F13
:105020008093FF02F0E0E252FD4F8081E9CFE091F2
:10503000FF0281E08E0F8093FF028091BB00F0E0C1
:10504000E252FD4F80839091FF028091FE029817FB
:10505000C8F285E8D8CFE091FF0281E08E0F8093FF
:10506000FF028091BB00F0E0E252FD4F808380910F
:10507000010381115CCF81E08093DC0284EA80939C
:10508000BC001092020326CF85EC8093BC001092E6
:10509000020380918202803230F4E0918202F0E0DB
:1050A000EE59FD4F10826091820270E0E091A00203
:1050B000F091A10282E692E00995109282020ACF55
:1050C0001092000334CFEF92FF920F931F93CF9370
:1050D000DF93CDB7DEB7C659D1090FB6F894DEBF5E
:1050E0000FBECDBF10922A031092290388EE93E0E1
:1050F000A0E0B0E080932B0390932C03A0932D03AA
:10510000B0932E0323EA31E0309328032093270342
:105110002FEF3FEF309334032093330310927A0341
:105120001092790380937B0390937C03A0937D037B
:10513000B0937E0385EB91E090937803809377039F
:105140001092910310929303109292031092950380
:105150001092940380918903811113C010928403EB
:105160001092830380E892E09093860380938503F6
:105170008CE390E0909388038093870381E0809391
:1051800089030E941309FC01A385B485109709F0D7
:10519000A8C183E893E094878387858596852091CD
:1051A000870330918803820F931F9687858710921B
:1051B000B0031092AF0387EC91E09093AE0380931D
:1051C000AD038091A503811113C01092A00310922A
:1051D0009F038CEB92E09093A2038093A1038FE254
:1051E00090E09093A4038093A30381E08093A503B0
:1051F0000E941309FC01A385B485109709F07CC1B6
:105200008FE993E094878387858596852091A30312
:105210003091A403820F931F96878587E7E7F4E018
:105220008EEA94E01382148235968E179F07D1F789
:10523000EBE4F4E081E090E0108293838283349683
:1052400024E0E737F207C1F7ECEEF3E0AFEF84E6D6
:10525000A58310861186128613861486108A818B88
:10526000828B739694E0EB34F90791F780EB90E032
:105270009093E9038093E80388E590E09093EB0333
:105280008093EA031092C0031092BF031092C303ED
:105290001092C7031092C6038FEF93E09093C90357
:1052A0008093C8031092CB031092CA039093CD034E
:1052B0008093CC0353E05093CE0377E07093C20306
:1052C00081E08093C4035093C503E5E0E9838A83BA
:1052D00099E09B83EC83F1EAFD838E8325E82F839D
:1052E0005887E9879A8729E12B878C8729E22D87C0
:1052F0007E8705E10F87188A15E2198B8A8B45E7AF
:105300004B8B8C8B35E93D8B7E8B25E52F8B188E57
:10531000B5E6B98F1A8E21E82B8F62E06C8F4D8F26
:105320008E8F3F8F88A329A35AA3EBA38CA39DA3A1
:10533000E9E3EEA30FA318A619A77AA775E37BA745
:105340001CA676E47DA77BE37EA78FA7B8AB74E1AC
:1053500079AB4AAB74E07BAB3CAB8DAB2EAB6FABA8
:1053600048AF89AF3AAF7BAF2CAF5DAF9EAF8FAF89
:1053700056E121965FAF219722968FAF229780E862
:1053800023968FAF239786E224968FAF2497259696
:10539000AFAF25978FE726968FAF269727964FAF0B
:1053A000279780E128968FAF289729963FAF2997B6
:1053B0002A966FAF2A972B96FFAF2B972C961FAE8E
:1053C0002C972D969FAF2D9780E32E968FAF2E971B
:1053D0002F969FAF2F9781E360968FAF609761966E
:1053E0002FAF619762966FAF629780EC63968FAF35
:1053F000639764968FAF649783E590E00E94E735EA
:105400007C0183E5FE013196D70101900D928A95CA
:10541000E1F787E090E00E94E7358C01DC0111960E
:105420001C921E921396FC92EE92129783E590E0E6
:1054300015969C938E93149716961C920E941708AB
:10544000FC01A385B485109709F061C01487038718
:1054500085859685D80114962D913C91820F931FD6
:10546000968785879091C203892F86958695869524
:10547000977009F054C08093C3031091C303812F28
:1054800090E00E94E7359093C0038093BF0381E0D2
:105490009091C403911101C080E01C5F810F809343
:1054A000CF031092BA031092B9031092BC0310926A
:1054B000BB038FEF9FEF9093BE038093BD0390E0FB
:1054C00080E02091C3032817190659F154F1E091A7
:1054D000BF03F091C003E80FF91F10820196F1CFCE
:1054E000DC018D919C9111970097D1F783E893E0AF
:1054F0008D939C9352CEDC018D919C9111970097D6
:10550000D1F78FE993E08D939C937ECEDC018D9152
:105510009C9111970097D1F70D931C9399CF8F5FB2
:10552000AACFCA56DF4F0FB6F894DEBF0FBECDBF6D
:10553000DF91CF911F910F91FF90EF900895CF933E
:10554000DF93CDB7DEB764970FB6F894DEBF0FBE1A
:10555000CDBF789484B5826084BD84B5816084BDFC
:1055600085B5826085BD85B5816085BD80916E0001
:10557000816080936E001092810080918100826032
:10558000809381008091810081608093810080916F
:105590008000816080938000809191008260809380
:1055A00091008091910081608093910080919000A2
:1055B0008160809390008091C10084608093C100DD
:1055C0008091C10082608093C1008091C1008160A0
:1055D0008093C1008091C30081608093C30080915B
:1055E000C00082608093C0008091C200816080937F
:1055F000C20080917A00846080937A0080917A0062
:10560000826080937A0080917A00816080937A0032
:1056100080917A00806880937A001092B90210928B
:105620009F0210929E028091D70081608093D700E4
:1056300080EA8093D80089B5806189BD89B5826090
:1056400089BD09B400FEFDCF61E070E080E090E02C
:105650000E94FA048091D8008F7C80618093D800EA
:105660008091E000807F8093E0008091E1008E7E59
:105670008093E1008DE08093E200559A209A0E9489
:10568000DC128FEF9FEF909334038093330364EF2A
:1056900071E080E090E00E94FA041092BB02109248
:1056A000BA0210920403109226031092020311E032
:1056B000109301031092DC0261E082E00E94540426
:1056C00061E083E00E9454048091B9008E7F809352
:1056D000B9008091B9008D7F8093B90088E48093F0
:1056E000B80085E48093BC0089E292E09093A30225
:1056F0008093A2028AE292E09093A1028093A0029A
:1057000061E080E30E9431076AE070E080E090E0B1
:105710000E94FA0468E080E30E9431076AE070E0CA
:1057200080E090E00E94FA0460E986E00E94310780
:105730006AE070E080E090E00E94FA0460EC88E0AB
:105740000E9431076AE070E080E090E00E94FA0475
:1057500060E48AE10E9431076AE070E080E090E056
:105760000E94FA0463E383E30E9431076AE070E079
:1057700080E090E00E94FA0464E670E080E090E04F
:105780000E94FA0464EF71E080E090E00E94FA0465
:1057900080916201882309F428C11092C7031092F6
:1057A000C60380E090E19093C9038093C8031092F0
:1057B000CB031092CA039093CD038093CC03109334
:1057C000C1030E94340C64EF71E080E090E00E941D
:1057D000FA0480E094E1909347018093460180E0D1
:1057E0009FE0909349018093480184E080934401B5
:1057F00082E080934E014FEF60E08FEF93E00E94D4
:10580000730B2FEF4FEF6FEF84E00E94FC0B11E062
:105810001093030382E580932503109204031092F2
:10582000260380EF90E00E942C0785E590E00E941F
:105830002C0781E00E94A10110930303109204033E
:10584000109226038BEF90E00E942C0790E080E0FE
:105850000E942C0781E00E94A101412C512C3201B1
:1058600043942224239411E00E94F00E27E734E0B1
:105870003A8B298B7901CC24C394D12C00E063E1CD
:10588000862ED70118968C91189719969C91199786
:10589000992309F4E3C081114CC015968C9115979A
:1058A00090916201913009F0B7C0823021F11796D2
:1058B0008C919091C2038917F0F4E82FE695E69554
:1058C000E6952091BF033091C003E20FF32FF11D45
:1058D0008770A301920104C0220F331F441F551F7C
:1058E0008A95D2F7C9012081822B80838091C103E0
:1058F00081110E94340CB2E0BC15C8F0F601E85AE0
:10590000FE4F3080839CF0011124E451FC4F8089CC
:1059100081110DC04FEF60E0CF010E94730B311079
:1059200092C02FEF4FEF6FEF80E00E94FC0BF7016A
:1059300020860F5FBFEFCB1ADB0AE5E0EE0EF11C0D
:10594000FBE0CF16D10409F09CCF80917B04882323
:1059500009F48FC110937A048091A902882309F475
:10596000C8C00111C6C08091A8028111C2C01093A5
:10597000A8024FEF60E08CEE93E00E94810A4FEFA7
:1059800060E08FEF93E00E94810A60E078E080E0C1
:1059900098E00E945C0EC090A602D090A702E09012
:1059A000A402F090A5021092A7021092A6021092F3
:1059B000A5021092A4021092500110924F0180E0B3
:1059C00090E19093520180935101109254011092F2
:1059D0005301909356018093550180917B04882355
:1059E00009F4ABC00E94F00EF8CF80E090E1A0E097
:1059F000B0E08093960390939703A0939803B0939D
:105A0000990380939A0390939B03A0939C03B09374
:105A10009D0310939E03D7CE16966C9181110EC0F4
:105A2000605380919103682B6093910380919E0352
:105A3000882309F460CF0E9448095DCF8DEA93E086
:105A40000E94DA0958CF4FEF60E081E00E94E50B39
:105A50004FEF62E082E00E94E50B69CF882309F4F2
:105A600069CFC6010E94610DD70118961C9262CFC2
:105A7000043009F063C080914F01909150019A87E2
:105A80008987BE01675F7F4F84E090E00E94CC1061
:105A900080915101909152019C878B87BE01655F77
:105AA0007F4F86E090E00E94CC108091530190914E
:105AB00054019E878D87BE01635F7F4F88E090E031
:105AC0000E94CC108091550190915601988B8F8740
:105AD000BE01615F7F4F8AE090E00E94CC1063E0DE
