:100000000C9477010C949F010C949F010C949F0118
:100010000C949F010C949F010C949F010C949F01E0
:100020000C949F010C949F010C947E130C94ED137F
:100030000C949F010C949F010C949F010C949F01C0
:100040000C949F010C949F010C949F010C949F01B0
:100050000C949F010C949F010C949F010C941F160B
:100060000C949F010C949F010C949F010C949F0190
:100070000C949F010C949F010C949F010C949F0180
:100080000C949F010C949F010C949F010C949F0170
:100090000C9469160C949F010C949F010C949F0181
:1000A0000C949F010C949F010C949F01084AD73B2C
:1000B0003BCE016E84BCBFFDC12F3D6C74319ABD37
:1000C00056833DDA3D00C77F11BED9E4BB4C3E915B
:1000D0006BAAAABE000000803F05A84CCDB2D44E4A
:1000E000B93836A9020C50B9918688083CA6AAAA4C
:1000F0002ABE000000803F00000000000000000059
:100100002A2B280000000000000000000000000072
:1001100000000000000000002C9EB4A0A1A2A434A6
:10012000A6A7A5AE362D3738271E1F20212223244F
:100130002526B333B62EB7B89F8485868788898AEB
:100140008B8C8D8E8F909192939495969798999A87
:100150009B9C9D2F3130A3AD350405060708090A85
:100160000B0C0D0E0F101112131415161718191A67
:100170001B1C1DAFB1B0B500070605040100080A3D
:100180000B0C0D0900000000240027002A002D00A0
:10019000300000000000250028002B002E00310058
:1001A000000000002300260029002C002F0004047A
:1001B0000404040304050202020204030202020210
:1001C00006060606060604040202020404040802E7
:1001D00001104080401020408040800802040180CF
:1001E000402010020110801020404020000000023A
:1001F00000090F0000030401000C000000000000D3
:100200000000000000000000000000080B000202D7
:100210000200000904000001020200000524001091
:10022000010524010101042402060524060001073A
:1002300005810310004009040100020A00000007C4
:100240000502024000000705830240000004030984
:100250000412010002EF0201404123368000010137
:1002600002030141726475696E6F204C4C4300417A
:10027000726475696E6F204C656F6E6172646F0099
:1002800005010902A1010901A10085010509190162
:100290002903150025019503750181029501750556
:1002A000810305010930093116000026FF7F360061
:1002B0000046FF7F751095028102C0C00501090646
:1002C000A1018502050719E029E71500250175013F
:1002D000950881029501750881039506750815003A
:1002E00025730507190029738100C00088171124A0
:1002F0001FBECFEFDAE0DEBFCDBF11E0A0E0B1E07E
:10030000E0E3F9E602C005900D92A63DB107D9F7EA
:1003100024E0A6EDB1E001C01D92A73BB207E1F7D2
:1003200011E0C7E7D1E004C02197FE010E944733E6
:10033000C637D107C9F70E94C4190C9496340C949F
:100340000000982F20912B0381E0213208F043C058
:10035000809107038111FCCF80912A0332E0309312
:100360000703909306039FEF9093050310920403F5
:1003700020930303AAE0B3E0E3EEF2E090E0291358
:1003800031C01092E2029091E202880F892B809393
:10039000E2028091E102813049F51092E102809100
:1003A000E2028093BB008091BC0083FDF8CF85EC16
:1003B0008093BC00809107038230E1F380910503B4
:1003C0008F3FB1F0809105038032A1F08091050349
:1003D000803391F084E01092090310922B03109265
:1003E000080308953D9131939F5FC9CF85EEE0CF1B
:1003F00080E0F1CF82E0EFCF83E0EDCFFC01809190
:10040000BD02882311F13FB7F89482E08093E900A0
:100410002091F200822F90E01816190614F481E062
:1004200090E0882339F0289844E64093BC0240913C
:10043000F1004083222339F02091F200211103C002
:100440002BE62093E8003FBF08958FEF9FEF0895BC
:100450008091BE029091BF02891B990B0895089567
:1004600008950895409166025091670220916402B8
:100470003091650242175307B4F49091E8009570EB
:10048000E1F39091E80092FD19C08093F100809112
:1004900066029091670201968F739927892B19F450
:1004A0008EEF8093E800809166029091670201963A
:1004B000909367028093660281E0089580E008953A
:1004C000EF92FF920F931F93CF93DF93F82E192F84
:1004D000E62E042F81E0860F880F0E94320283E00F
:1004E0000E943202CF2DD12FEC0EFD2EF11CCE1525
:1004F000DF05B9F007FF13C0FE0184910E943202AC
:10050000182F80E00E943202812321968111EFCFC3
:10051000DF91CF911F910F91FF90EF900895888107
:10052000EDCF81E0F5CFDF92EF92FF920F931F9313
:10053000CF93DF93D82E8A01EB017B01E40EF51EE9
:10054000CE15DF0559F0D7FE12C0FE0184910E943E
:10055000320221968111F4CF0FEF1FEFC801DF9116
:10056000CF911F910F91FF90EF90DF9008958881B8
:10057000EECF2FB7F89487708093E9009091E80050
:10058000892F807295FF04C09091F20080E4891B4E
:100590002FBF0895615030F02091F100FC012083BD
:1005A0000196F8CF289884E68093BC020895809144
:1005B0005C0281110DC082E08093580284E0809338
:1005C000590210925B0210925A0281E080935C0201
:1005D00088E592E008950F931F93CF93DF931F92C6
:1005E000CDB7DEB782E0898342E450E06BE072E091
:1005F00080E80E9493020E94D702DC0112960D91BE
:100600001C910115110589F0D801ED91FC91028032
:10061000F381E02DBE016F5F7F4FC801099597FD03
:1006200004C0F80100851185ECCF89810F90DF911E
:10063000CF911F910F910895CF93DF93FC01DB01C0
:10064000818114963C911497682F630F7727771F49
:10065000683071059CF5C281D381209739F5B38349
:10066000A283908112969C93129713968C93139762
:1006700015968C911597890F808390E080E0831701
:1006800008F52181C22FD0E0BE0160507F4F169641
:100690004D915C911797480F591FEA014881EB0172
:1006A00048832F5F21830196EACFEA014885598567
:1006B00041155105D1F7B987A887D3CF80E0DF91E5
:1006C000CF91089581E0FBCFCF93DF931F92CDB7F9
:1006D000DEB76983DC01ED91FC910280F381E02DAE
:1006E00041E050E0BE016F5F7F4F09950F90DF91B1
:1006F000CF91089583E08093E9008091F2008823F0
:1007000019F08AE38093E800089583E00E94B9021B
:1007100090E00895CF93DF931F92CDB7DEB7FC0131
:100720008485958597FD08C02FEF3FEF3587248797
:100730000F90DF91CF910895CE0101960E94FE01A6
:10074000019719F4898190E0F3CF8FEF9FEFF0CFFD
:100750000F931F93CF93DF931F92CDB7DEB78C011A
:10076000FC018485958597FF0BC0CE0101960E9400
:10077000FE01019771F4898190E0F80195878487E3
:10078000F801848595850F90DF91CF911F910F918E
:1007900008958FEF9FEFF1CFFC018485958597FD3C
:1007A0000BC09FB7F89482E08093E9008091F2003B
:1007B0009FBF90E0019608959FB7F89482E08093E0
:1007C000E9008091F2009FBF90E0089581508F3042
:1007D00008F047C0E82FF0E0E051FC4F0C9447339D
:1007E0000D041104FF03050409043104310431042C
:1007F00014041A041E042204280431042C048091D9
:1008000080008F77809380000895809180008F7D95
:10081000F9CF80918000877FF5CF84B58F7784BD35
:10082000089584B58F7DFBCF809190008F77809362
:1008300090000895809190008F7DF9CF8091900075
:10084000877FF5CF8091C0008F778093C000089597
:100850008091C0008F7DF9CF8091C200877F809307
:10086000C2000895CF93DF93282F30E0F901E451BF
:10087000FE4F8491F901E353FE4FD491F901E25503
:10088000FE4FC491CC23A1F081110E94E603EC2F0E
:10089000F0E0EE0FFF1FE056FE4FA591B491EC91F2
:1008A000ED2381E090E009F480E0DF91CF9108959D
:1008B00080E090E0FACF1F93CF93DF93282F30E0B2
:1008C000F901E451FE4F8491F901E353FE4FD491B5
:1008D000F901E255FE4FC491CC23A9F0162F8111E6
:1008E0000E94E603EC2FF0E0EE0FFF1FEE56FE4FE6
:1008F000A591B4918FB7F894EC91111108C0D095DF
:10090000DE23DC938FBFDF91CF911F910895DE2B03
:10091000F8CFCF93DF9390E0FC01E353FE4F249197
:1009200082559E4FFC0184918823D1F090E0880F7E
:10093000991FFC01EC57FE4FA591B491FC01EE56B6
:10094000FE4FC591D491623071F49FB7F8943C91F9
:10095000822F809583238C93E8812E2B28839FBF41
:10096000DF91CF9108958FB7F894EC912E2B2C93B3
:100970008FBFF6CF8251E82FF0E0E858FE4FE491A8
:1009800090917B008E2F880F880F80729F7D892B1E
:1009900080937B00E770E064E0937C0080917A00B4
:1009A000806480937A0080917A0086FDFCCF8091EC
:1009B00078009091790008953FB7F894809154029F
:1009C00090915502A0915602B091570226B5A89B6E
:1009D00005C02F3F19F00196A11DB11D3FBFBA2FD1
:1009E000A92F982F8827BC01CD01620F711D811D91
:1009F000911D42E0660F771F881F991F4A95D1F716
:100A000008958F929F92AF92BF92CF92DF92EF9212
:100A1000FF924B015C010E94DC046B017C010E948F
:100A2000DC046C197D098E099F09683E73408105BD
:100A30009105A8F321E0821A9108A108B10888EE77
:100A4000C80E83E0D81EE11CF11C81149104A1049E
:100A5000B10429F7FF90EF90DF90CF90BF90AF9057
:100A60009F908F9008957F928F929F92AF92BF92A6
:100A7000CF92DF92EF92FF920F931F93CF93DF936A
:100A8000C82E8B017A018091BD02811110C08FEFB9
:100A90009FEFDF91CF911F910F91FF90EF90DF902B
:100AA000CF90BF90AF909F908F907F90089580914E
:100AB0006A0280FF05C08091E00082608093E000C0
:100AC000CE2DDF2DD12C8AEFB82E8C2D8770982E4D
:100AD0008C2D8072882E8C2D8074782E9AE3A92E0E
:100AE000209719F4DD2009F452C08C2D0E94B90220
:100AF00081110AC0BA94BB2051F261E070E080E03D
:100B000090E00E940105ECCF8C171D0611F00CF04F
:100B10008C2F9FB7F8949092E9002091E80025FD72
:100B200002C09FBFDDCF282F30E0C21BD30B88202F
:100B300029F08150A0F01092F100FBCFF801C7FC22
:100B40000AC0815050F041914093F100FACF449196
:100B50004093F10031968150D0F7020F131FDD2032
:100B600021F0A092E800D12CDCCF8091E80085FD37
:100B700007C0A092E800DD24D394209791F2F3CF30
:100B8000209779F6772069F2A092E800CACF5D98A5
:100B900084E680936902C7017CCFCF93DF93EC0199
:100BA00080911201882331F083E00E9433051816EA
:100BB000190634F081E090E09B838A8380E090E026
:100BC000DF91CF9108952FB7F89460915002709102
:100BD000510280915202909153022FBF08950F93BA
:100BE0001F930E94E3056093340370933503809351
:100BF0003603909337038CE293E00E94A80397FF9B
:100C00001DC00E94E305009134031091350320912B
:100C1000360330913703601B710B820B930B0091ED
:100C20003003109131032091320330913303601768
:100C3000710782079307F8F28FEF9FEF1F910F91D3
:100C40000895CF92DF92EF92FF92CF930E94EF052B
:100C5000FC0197FD4EC08D32910521F0C0970A9797
:100C600008F040C0C12CD12C7601C0E0E130F10584
:100C7000D1F0ED32F105D9F1CF01C0970A9798F480
:100C8000AAE0B0E0A70196010E947D306F01FF0F3E
:100C9000EE08FF08C60ED71EE81EF91E80E3C81A2C
:100CA000D108E108F1088CE293E00E948A030E94D7
:100CB000EF05FC01C0970A97C8F2E130F105B1F2E7
:100CC000CC2341F0F094E094D094C094C11CD11C8A
:100CD000E11CF11CC701B601CF91FF90EF90DF90AE
:100CE000CF9008958CE293E00E948A03AFCFC1E0D9
:100CF000DACFC12CD12C7601EDCF85ED8093BC00ED
:100D00008091BC0084FDFCCF1092070308952091D0
:100D10002C02260F3327331F21323105ECF42091AA
:100D20000703FC0190E080E0243069F082E0089540
:100D3000A0912C022191AC01445F5D4FA40FB52F0F
:100D4000B11D2C930196861798F380912C02680FA1
:100D500060932C0280E0089581E00895E091BF0245
:100D60008091BE02E81730F4F0E0E054FD4F80813E
:100D700090E008958FEF9FEF08959091BF028091CA
:100D8000BE022FEF3FEF981748F4E92FF0E0E05450
:100D9000FD4F208130E09F5F9093BF02C90108950D
:100DA000CF92DF92EF92FF920F931F93CF93DF9337
:100DB0007C01CB018A0120910803222389F0EB01F9
:100DC0006B01C40ED51ECC15DD0569F06991D70104
:100DD000ED91FC910190F081E02DC7010995F3CFD1
:100DE000642F0E948706C801DF91CF911F910F9158
:100DF000FF90EF90DF90CF900895CF93DF931F92F5
:100E0000CDB7DEB76983209108032223F9F0209142
:100E10002B03203258F021E030E0FC0133832283A1
:100E200090E080E00F90DF91CF91089580910903C9
:100E3000E82FF0E0E65FFC4F998190838F5F80930D
:100E4000090380932B0381E090E0ECCF61E0CE01B9
:100E500001960E948706F7CF682F8CE793E00C94E9
:100E6000FD06CF93C62F9091EF0321E02093080356
:100E700090932A031092090310922B03682F8CE79A
:100E800093E00E94FD066C2F8CE793E00E94FD0624
:100E900081E0CF910C94A101DC01FB019181808163
:100EA000813A31F49D7F81E0913009F080E008952E
:100EB0008132E1F79B3029F482811F968C9381E087
:100EC00008959A3099F7828150968C93F8CFFC015F
:100ED0004281FB01248135814217130611F40C94E1
:100EE0004C0780E00895DC01FB0188E4808389E4FD
:100EF000818384E482831D969C911D979F709F5BE4
:100F000093831D968D919C9124E0969587952A95C3
:100F1000E1F78F708F5B848385E00895EF92FF92F5
:100F20000F931F93CF93DF93FB012081213889F525
:100F30002381223271F5DC0112964C912481358196
:100F40004217130631F58C01FC01C385D485F12CC1
:100F5000E12C209791F04C815D816A817B818E81AB
:100F6000811180E80E9493028F3F980759F0E80EA4
:100F7000F91E0990D881C02DECCF81E0D8011F96D1
:100F80008C93C701DF91CF911F910F91FF90EF904C
:100F9000089590E080E0F6CFCF93DF93CDB7DEB732
:100FA00069970FB6F894DEBF0FBECDBFFC01DB0121
:100FB0008C918F5F8C939E012D5F3F4F8DE0D90107
:100FC0001D928A95E9F729E0298384E08A8391E0DC
:100FD0009D8383E08E832A8721E22B879C879D87D0
:100FE0009F8722E2288B27E02B8B25E02C8B8E8B92
:100FF00020E430E0388F2F8B998F82818B83958509
:101000008685998B8A8B838180688D8B49E150E03E
:10101000BE016F5F7F4F80E00E94930269960FB61A
:10102000F894DEBF0FBECDBFDF91CF910895CF936F
:101030008091040281112CC0C1E0C093F701C093DC
:10104000F8018DEF91E09093FA018093F9011092ED
:10105000FC011092FB018AE891E09093F4018093E7
:10106000F3011092FF011092FE0110920102109202
:101070000002C0930202C093030281EC8093FD0141
:101080000E94D70263EF71E00E941C03C093040228
:1010900083EF91E0CF910895FC014281FB0124810F
:1010A00035814217130611F40C944C0780E0089523
:1010B000AF92BF92CF92DF92EF92FF920F931F9366
:1010C000CF93DF931F92CDB7DEB77C0169836A01AE
:1010D000590141E050E0BE016F5F7F4FFC01838109
:1010E0000E9433058C0197FD0BC0F7018381A50198
:1010F000B60180640E943305080F191F97FD8C010B
:10110000C8010F90DF91CF911F910F91FF90EF9049
:10111000DF90CF90BF90AF900895EF92FF920F9322
:101120001F93CF93DF93FB012081213871F5238139
:10113000223259F5DC0112964C91248135814217F7
:10114000130619F5EC010B851C85F12CE12C01151A
:10115000110589F0F801448155816281738180E82D
:101160000E9493028F3F980749F0E80EF91ED801BC
:101170000D911C91ECCF81E08F87C701DF91CF915A
:101180001F910F91FF90EF90089590E080E0F6CFCF
:10119000CF93DF93CDB7DEB769970FB6F894DEBF74
:1011A0000FBECDBFFC01DB018C918F5F8C939E0144
:1011B0002D5F3F4F8DE0D9011D928A95E9F729E017
:1011C000298384E08A8391E09D8383E08E832A874C
:1011D00021E22B879C879D879F8722E2288B27E02F
:1011E0002B8B25E02C8B8E8B20E430E0388F2F8BDF
:1011F000998F82818B8395858685998B8A8B838154
:1012000080688D8B49E150E0BE016F5F7F4F80E0C9
:101210000E94930269960FB6F894DEBF0FBECDBF51
:10122000DF91CF910895CF938091EB0181112CC074
:10123000C1E0C093DE01C093DF0184EE91E09093A2
:10124000E1018093E0011092E3011092E2018EE748
:1012500091E09093DB018093DA011092E601109205
:10126000E5011092E8011092E701C093E901C093F3
:10127000EA0181EC8093E4010E94D7026AED71E0FB
:101280000E941C03C093EB018AED91E0CF91089579
:10129000CF93DF9300D000D01F92CDB7DEB7E6E941
:1012A000F3E080818983918182819A838B8393810A
:1012B00084819C838D830E94130925E030E0AE0178
:1012C0004F5F5F4F61E00E9458080F900F900F90A2
:1012D0000F900F90DF91CF910895CF92DF92EF9210
:1012E000FF920F931F93CF93DF936C01EB017B0170
:1012F000E40EF51E10E000E0CE15DF0581F06991E7
:101300006D30D1F3D601ED91FC910190F081E02D8B
:10131000C6010995892B19F00F5F1F4FEDCFC8014A
:10132000DF91CF911F910F91FF90EF90DF90CF90C1
:101330000895CF93DF93EC016838E0F06858FE0120
:1013400086E0662321F09681961301C016828150B3
:1013500031968111F6CF0E941309AE014C5F5F4FA9
:1013600028E030E062E00E94580881E090E0DF91E0
:10137000CF910895E62FF0E067FF0EC0E058F10925
:1013800081E090E001C0880FEA95EAF780959C81A2
:1013900089238C8360E0D3CFE850FF4F649190E0C5
:1013A00080E0662321F367FFCACF8C818D7F8C8319
:1013B0006F77C5CFEF92FF921F93CF93DF93EC012E
:1013C000162FE8E7E60F683880F4E62FF0E067FFB5
:1013D00038C0E058F10921E030E001C0220FEA9561
:1013E000EAF78C81822B8C83E0E08E818E17D9F016
:1013F0008F81E817C1F08885E817A9F08985E8177B
:1014000091F08A85E81779F08B85E81761F0DE01A5
:10141000169690E080E02D91211130C08C0F9D1F19
:10142000DC011696EC930E94130928E030E0AE012F
:101430004C5F5F4F62E00E945808EE24E394F12C69
:101440000BC0E850FF4FE491E11111C081E090E042
:101450009B838A83F12CE12C612FCE010E94990994
:10146000C701DF91CF911F91FF90EF900895E7FFA3
:10147000BCCF8C8182608C83EF77B7CF01968630AA
:10148000910549F6E3CF089590E080E00895CF926A
:10149000DF92EF92FF926B017C0128EB3EEF43EB72
:1014A00053E40E94AB3218168CF420E030E044EB99
:1014B00053E4C701B6010E94B9306B017C01C7013A
:1014C000B601FF90EF90DF90CF90089520E030E0DC
:1014D000A901C701B6010E94242F87FFF0CF20E0A9
:1014E00030E044EB53E4C701B6010E94BA30E5CFC7
:1014F0008F929F92AF92BF92CF92DF92EF92FF9224
:101500001F93CF93DF93FC012785222309F46EC03C
:10151000F62EEC01649F60011124C114D104F1F195
:101520000E94E30569877A878B879C8718818E8163
:101530006F2D882329F16A8970E090E080E00E9495
:101540002B2F20E030E048EC52E40E949D314B010B
:101550005C01B601DD0C880B990B0E942B2F9B01BF
:10156000AC01C501B4010E948A2F0E940F326B01A9
:10157000EB0161E0812F0E948904209789F460E0EB
:10158000812FDF91CF911F91FF90EF90DF90CF904F
:10159000BF90AF909F908F900C945B041086C6CF45
:1015A000CF3FD10511F461E0EBCFE12FF0E0E45142
:1015B000FE4FE491E150EF3008F087C0F0E0ED51CC
:1015C000F54F0C944733F20A020B070B110B1B0B60
:1015D000650B650B650B250B2F0B390B430B500B64
:1015E000650B580B84B5806884BDC7BCDF91CF9173
:1015F0001F91FF90EF90DF90CF90BF90AF909F90A2
:101600008F90089584B5806284BDC8BCEFCF80916F
:101610008000806880938000D0928900C09288000A
:10162000E5CF80918000806280938000D0928B0013
:10163000C0928A00DBCF8091800088608093800018
:10164000D0928D00C0928C00D1CF809190008068A4
:1016500080939000D0929900C0929800C7CF80915B
:101660009000806280939000D0929B00C0929A007C
:10167000BDCF80919000886080939000D0929D00B3
:10168000C0929C00B3CF8091C00080688093C0005E
:101690008091C0008F7B8093C000C092CF00A6CF06
:1016A0008091C00080628093C000C092D0009ECF25
:1016B0008091C20088608093C2008091C2008B7FBD
:1016C0008093C200C092D20091CFC038D1050CF0F7
:1016D0006ACF55CF8F929F92AF92BF92CF92DF92F7
:1016E000EF92FF921F93CF93DF93EC018F81680FEE
:1016F0006F834D838F85882309F452C088858111BB
:101700004FC0142F0E94E305C984DA84EB84FC8463
:101710006C197D098E099F090E94292F6B017C019C
:101720006B817C81072E000C880B990B0E942B2F5C
:101730004B015C01698970E090E080E00E942B2FF2
:1017400020E030E048EC52E40E949D319B01AC0166
:10175000C501B4010E949D314B015C0169817A8110
:10176000072E000C880B990B0E942B2F9B01AC01BC
:10177000C501B4010E94BA309B01AC01C701B6019A
:101780000E94AB3287FD0CC0412F61E0CE010E9468
:10179000780A81E088878F81882311F081508F83B8
:1017A000DF91CF911F91FF90EF90DF90CF90BF908E
:1017B000AF909F908F9008959091E002992399F0B7
:1017C000282F30E02E5F3F4F43E1429FC001439FEF
:1017D000900D11248F509C4FFC012089211103C0D2
:1017E0004FEF0C946A0B08954F925F926F927F9225
:1017F0008F929F92AF92BF92CF92DF92EF92FF9221
:101800000F931F93CF93DF93CDB7DEB7CDB6DEB680
:101810008091D4032DB73EB7281B31090FB6F89439
:101820003EBF0FBE2DBF8DB79EB701967C010091C4
:10183000C80310E08091C4039091C503D701FC0157
:101840009F01281B390B201731071CF421912D9380
:10185000F7CF8091C9038823A9F08091C2039091AA
:10186000C30368E097FD08C068E671E00E94333367
:101870006DE270E00E943333F701E00FF11F6083E7
:101880000F5F1F4F4091CD035091CE038091CB034A
:101890009091CC03B090CA032B2D21702C01FA013A
:1018A0008417950714F02A01FC0170E060E0222300
:1018B000E9F16091BE037091BF03641575050CF4E6
:1018C000B2019F016E177F070CF49B01481759075F
:1018D00034F4CF01821B930B9C01240D351D052C84
:1018E000000C66087708032E000C440B550B2419D6
:1018F000350946095709AEEFBFEF0E947D309F01C1
:10190000FF0F440B550B24193509460957090E944E
:101910005E30DA01C9018F5F9F47A109B109F70164
:10192000E00FF11F8083918362E070E04091D1036A
:101930005091D2038091CF039091D0032B2D227030
:101940004C01FA018417950714F04A01FC01222387
:10195000E1F12091C0033091C103281539050CF441
:101960009401E217F3070CF49F014817590734F468
:10197000CF01821B930B9C01280D391D060F171FE9
:10198000092C000CAA08BB08032E000C440B550BB5
:10199000281939094A095B09AEEFBFEF0E947D3073
:1019A0009F01FF0F440B550B281939094A095B09A0
:1019B0000E945E30DA01C9018F5F9F47A109B1091A
:1019C000F701E00FF11F808391830E9417084C01FB
:1019D0004091D4038091D30350E05A019FEFA91A9C
:1019E000B90AEDB7FEB7EA19FB090FB6F894FEBFC6
:1019F0000FBEEDBF0DB71EB70F5F1F4F8183B7013D
:101A0000C80101960E948D34F4018381A501B801BB
:101A100080640E9433050FB6F894DEBE0FBECDBEC3
:101A2000DF91CF911F910F91FF90EF90DF90CF90BA
:101A3000BF90AF909F908F907F906F905F904F90EE
:101A40000895CF93DF93EB01209161012223A9F048
:101A50009093BF038093BE038091C60381110E94BF
:101A6000F40BD093C103C093C0038091C6038823B5
:101A700091F1DF91CF910C94F40B2FEF3FE7DC0154
:101A80000E944D3320919B0330919C0340919D0314
:101A900050919E030E9488303093980320939703BF
:101AA0002FEF3FE7DE010E944D3320919F033091DD
:101AB000A0034091A1035091A2030E94883030936B
:101AC0009A03209399038091A303882321F0DF9147
:101AD000CF910C944809DF91CF910895FC010190BA
:101AE0000020E9F73197AF01481B590BBC018CE28C
:101AF00093E00C94CD058F929F92AF92BF920F937B
:101B00001F93CF93DF93CDB7DEB7A1970FB6F894AD
:101B1000DEBF0FBECDBF19A2423008F44AE08E01ED
:101B20000F5D1F4F842E912CB12CA12CA501940187
:101B30000E948830E62FB901CA01EA30F4F4E05D72
:101B4000D801EE938D01232B242B252B79F790E0E0
:101B500080E0109719F0CD010E946E0DA1960FB68E
:101B6000F894DEBF0FBECDBFDF91CF911F910F91D3
:101B7000BF90AF909F908F900895E95CE1CFCF9296
:101B8000DF92EF92FF92CF93DF936C01990FEE08F3
:101B9000FF08F7FE19C06DE28CE293E00E94640337
:101BA000EC0166277727CB016C197D098E099F0907
:101BB0004AE00E947B0D8C0F9D1FDF91CF91FF901B
:101BC000EF90DF90CF9008954AE0C701B601DF9112
:101BD000CF91FF90EF90DF90CF900C947B0D909180
:101BE00007039111FCCF262F91E090930703909368
:101BF00006033FEF3093050310920403360F309332
:101C000003039093E2029091E202880F892B809364
:101C1000E2028091E102813019F51092E102809197
:101C2000E2028093BB008091BC0083FDF8CF85EC7D
:101C30008093BC00809107038130E1F3809104031D
:101C4000861710F420910403A3EEB2E0E0ECF2E07A
:101C500080E0821307C01092BF028093BE020895F5
:101C600085EEE6CF9D9191938F5FF3CFFF920F9317
:101C70001F93CF93DF93EC018B01FB01F0800E9457
:101C80004830F81621F06F2DCE010E945030F80137
:101C9000F1802196CE010E944830F81621F06F2D78
:101CA000CE010E945030C801DF91CF911F910F915A
:101CB000FF900895EF92FF920F931F93CF93DF93BE
:101CC00000D0CDB7DEB78B017C01EE0CFF1CC70145
:101CD0000E9448308983C70101960E9448308A8358
:101CE00089819A818F3F980709F08C01C8010F9074
:101CF0000F90DF91CF911F910F91FF90EF9008957A
:101D00008F929F92AF92BF92CF92DF92EF92FF920B
:101D10000F931F93CF93DF93EB018901841B950BE6
:101D2000BC01990F880B990B0E942B2F6B017C0132
:101D3000BE01601B710B072E000C880B990B0E94D3
:101D40002B2F4B015C01A7019601C701B6010E9430
:101D50008A2F6B017C01A5019401C501B4010E9489
:101D60008A2F9B01AC01C701B6010E94BA30DF91F6
:101D7000CF911F910F91FF90EF90DF90CF90BF9088
:101D8000AF909F908F900C94C632CF92DF92EF92DB
:101D9000FF920F931F93CF93DF938B01E901BA0159
:101DA000681B790B072E000C880B990B0E942B2FB8
:101DB0006B017C01BE01601B710B072E000C880BB0
:101DC000990B0E942B2FA7019601DF91CF911F91B4
:101DD0000F91FF90EF90DF90CF900C9439312F92BC
:101DE0003F924F925F926F927F928F929F92AF92AB
:101DF000BF92CF92DF92EF92FF920F931F93CF93F8
:101E0000DF93CDB7DEB729970FB6F894DEBF0FBECC
:101E1000CDBF882E082E000C9908F901E80DF91D98
:101E2000FA83E9839081911118C1A62E062E000C29
:101E3000BB082BE02A9DF0012B9DF00D1124EC5DD9
:101E4000FE4F90819F3F09F008C14203F001112429
:101E5000EC5DFE4F2081298792E0980F943010F0BE
:101E60009EEF980FE985E91709F4F7C0FD82EC822F
:101E70001F830E836B838887ABE06A02F001112415
:101E8000EC5DFE4F4A02D0011124AC5DBE4F1496AA
:101E90002D913C91159712964D915C9164817581BD
:101EA000828193810E94C50E20EE3EE245E652E417
:101EB0000E948A2F2B013C0120E030E0A9010E9402
:101EC000242F87FF0AC020E030E044EB53E4C30135
:101ED000B2010E94BA302B013C012091AA0230913C
:101EE000AB024091AC025091AD02C301B2010E941D
:101EF000B9300E94470A0E940F328B01C090D60170
:101F0000D090D701E090D801F090D90120E030E0E6
:101F100040EA51E4C701B6010E94B9300E940F3275
:101F20002B0120E030E040EA51E4C701B6010E94F5
:101F3000BA300E940F32AB01CB01041515052CF00D
:101F40006DE270E00817190774F184EB90E09C01D2
:101F5000241B350B021713073CF08419950967E819
:101F600070E008171907FCF0C2018D549F4F8017CD
:101F7000910744F4CA018D549F4F61EE70E08017C1
:101F800091078CF488E691E09C01241B350B021725
:101F900013073CF0841995096BE371E008171907E2
:101FA00014F070E060E0072E000C880B990B0E9483
:101FB0002B2F2B013C01F8852AE5F2028001112428
:101FC000B80167587109072E000C880B990B0E9405
:101FD0002B2F0E94470AA30192010E94242F8111F6
:101FE00009C088858F5F843011F488858350998576
:101FF000981319C0B80169577F4F072E000C880B42
:10200000990B0E942B2F0E94470AA30192010E9464
:10201000242F811122C08885815010F488858D5F1E
:10202000E985E817D1F08BE08A9DF0018B9DF00DDA
:102030001124EC5DFE4F2885208381E0E981FA813F
:1020400080838E819F81880E991E2B81F4012083CD
:10205000EC81FD8180818F5F808329960FB6F89493
:10206000DEBF0FBECDBFDF91CF911F910F91FF90CB
:10207000EF90DF90CF90BF90AF909F908F907F9028
:102080006F905F904F903F902F9008958F929F9206
:10209000AF92BF92CF92DF92EF92FF920F931F9376
:1020A000CF93DF93CDB7DEB728970FB6F894DEBF96
:1020B0000FBECDBF62E089E10E94890462E08BE13E
:1020C0000E94890462E08CE10E94890468EC70E05F
:1020D00080E090E00E94010589E10E94BA047C0141
:1020E0008BE10E94BA048C018CE10E94BA0421E0C9
:1020F000E21AF108E3E8EE16E3E0FE0660F40150B0
:1021000011090338134038F401978338934018F4C9
:1021100081E08093E00268EC70E080E090E00E9453
:10212000010588E0EEE6F1E0DE01119601900D92E6
:102130008A95E1F76091B0027091B10290E080E081
:102140000E945A0E9093B1028093B0026091AE0249
:102150007091AF0281E090E00E945A0E9093AF021E
:102160008093AE0218E1E12E11E0F12E02E010E0C2
:10217000F701619171917F01C8010E945A0EF70128
:102180003297918380830F5F1F4F0630110581F7CF
:1021900060E170E086E090E00E945A0E7C0169E008
:1021A00070E087E090E00E945A0E8C01B701FF0CAE
:1021B000880B990B0E942B2F6B017C01B801110F2A
:1021C000880B990B0E942B2F9B01AC01C701B60114
:1021D0000E949D316B017C01C0925C01D0925D0137
:1021E000E0925E01F0925F01CE0101965C0108E091
:1021F00010E0F501619171915F01C8010E945A0ED2
:10220000F5013297918380830F5F1F4F0C301105CA
:1022100081F7B1E6AB2EB1E0BB2EF50161915F0114
:1022200070E0C8010E945A0EF501319780830F5F5C
:102230001F4F0331110589F76091160170E08EE19F
:1022400090E00E945A0E809316016091170170E091
:102250008FE190E00E945A0E809317012EEB3FE928
:102260004AEA5FE3C701B6010E94AB3218168CF050
:102270002EEB3FE94AEA5FE3C701B6010E94242F33
:1022800087FFEBC12BE43CE040E455E4C701B60115
:102290000CC0A701960160E070E080E895E40E9420
:1022A0009D312EEB3FE94AEA5FE30E948A2F20E04E
:1022B00030E040E05FE30E948A2F4B015C01AC01FB
:1022C0009B0160E070E080E095E40E94B93020E07E
:1022D00030E040E05FE30E94BA300E940F3270931A
:1022E000B9026093B80220E030E040E055E4C50157
:1022F000B4010E94BA3020E030E040E05FE30E9489
:10230000BA300E940F327093BB026093BA02A701E9
:10231000960160E070E080E89FE30E94393120EE92
:102320003EE245E652E40E948A2F6B017C0120E0E8
:1023300030E0A9010E94242F87FF0AC020E030E08E
:1023400044EB53E4C701B6010E94BA306B017C0133
:10235000C0928A02D0928B02E0928C02F0928D029F
:10236000C092D601D092D701E092D801F092D90163
:10237000A701960160E070E084EB93E40E94B9301D
:1023800060938E0270938F028093900290939102DB
:10239000A701960160E070E084E393E40E94B93005
:1023A00060939202709393028093940290939502AB
:1023B00020E030E044E353E4C701B6010E94BA30A4
:1023C000609396027093970280939802909399027B
:1023D0008B819C8129813A8147E0D42ED092F103F0
:1023E00011E0109300043093F3032093F2039093D1
:1023F000F5038093F4031092F70354E6F52EF09260
:10240000030461E087E00E9489044FEF60E081EF00
:1024100093E00E94780A8F8198852D813E8165E046
:10242000E62EE092040410931304309306042093E4
:102430000504909308048093070410930A04F09213
:10244000160461E085E00E9489044FEF60E084E0BB
:1024500094E00E94780A10937C0480E380937D04CA
:102460008FEF80937E041092810481E38093820435
:10247000109283041092860492E390938704109341
:10248000880410928B0494E390938C0402E00093F0
:102490008D041093900495E39093910473E0B72E0C
:1024A000B09292041093950480939604E4E0CE2EAB
:1024B000C092970410939A0481E880939B04E09261
:1024C0009C0400939F048AED8093A004F4E19F2E66
:1024D0009092A1040093A40487ED8093A504A5E144
:1024E000AA2EA092A6040093A90489ED8093AA04C1
:1024F00086E18093AB040093AE0488ED8093AF0433
:1025000087E18093B00462E083E10E94890483E163
:10251000809350041092510462E084E10E94890487
:10252000909254041093550462E085E10E9489045E
:10253000A09258040093590462E088E10E94890443
:1025400088E180935C04B0925D0462E08AE10E94BD
:1025500089048AE180936404C09265048091E0025A
:10256000882309F47FC0D092130162E08FE00E94BB
:1025700089048FE0809360040093610462E08EE040
:102580000E9489048EE080936804E092690489E1E6
:10259000809317041093260492E3A92EB12CB092D5
:1025A0001904A09218042CE3C22ED12CD0921B0443
:1025B000C0921A0410931D04F092290461E00E9455
:1025C00089044FEF60E087E194E00E94780A8BE194
:1025D00080932A0410933904B0922C04A0922B0407
:1025E000D0922E04C0922D0410933004F0923C043B
:1025F00061E00E9489044FEF60E08AE294E00E946B
:10260000780A8CE180933D0410934C04B0923F040F
:10261000A0923E04D0924104C0924004109343041F
:10262000F0924F0461E00E9489044FEF60E08DE377
:1026300094E028960FB6F894DEBF0FBECDBFDF91B1
:10264000CF911F910F91FF90EF90DF90CF90BF90AF
:10265000AF909F908F900C94780A60E070E080E8D3
:1026600095E425CE62E089E10E94890489E18093A6
:1026700060040093610462E08BE10E9489048BE1B5
:1026800080936804E092690462E08FE00E9489040C
:102690008FE080936C04D0926D0462E08CE10E9424
:1026A00089048CE18093700488E08093710462E077
:1026B0008EE00E9489048EE08093740489E0809308
:1026C000750462E080E10E94890480E180937804CF
:1026D0008AE08093790428960FB6F894DEBF0FBE87
:1026E000CDBFDF91CF911F910F91FF90EF90DF90C1
:1026F000CF90BF90AF909F908F9008951F920F92B0
:102700000FB60F9211248F939F938091E1009091C7
:10271000E100937F9093E10083FF0FC01092E900E6
:1027200091E09093EB001092EC0092E39093ED0017
:102730001092BD0298E09093F00082FF22C093E0D7
:102740009093E9009091F200992319F09AE3909305
:10275000E80090916902992341F0909169029150AB
:1027600090936902911101C05D9A9091BC029923E6
:1027700041F09091BC0291509093BC02911101C024
:10278000289A84FF18C08091E2008E7E8160809339
:10279000E2008091E1008F7E8093E10080916A02E7
:1027A0008E7E806180936A029F918F910F900FBE01
:1027B0000F901F90189580FFF7CF8091E2008E7EDA
:1027C00080618093E2008091E1008E7E8093E10041
:1027D00080916A028E7E8160E5CF1F920F920FB6C4
:1027E0000F921124CF92DF92EF92FF920F931F93DB
:1027F0002F933F934F935F936F937F938F939F9309
:10280000AF93BF93EF93FF93CF93DF93CDB7DEB733
:102810006C97DEBFCDBF1092E9008091E80083FF86
:1028200025C068E0CE0145960E94CA0282EF8093DF
:10283000E8008D8987FF39C09091E80090FFFCCFB8
:10284000982F907609F034C19E894F89588D2F8931
:10285000F88C911131C0803861F580916B028093C2
:10286000F1001092F1008EEF8093E8006C960FB6A5
:10287000F894DEBF0FBECDBFDF91CF91FF91EF91F6
:10288000BF91AF919F918F917F916F915F914F9188
:102890003F912F911F910F91FF90EF90DF90CF907C
:1028A0000F900FBE0F901F9018959EEF9093E80029
:1028B000C7CF1092F100D5CF913059F48111D3CF09
:1028C0004130510581F680916B028D7F80936B02C0
:1028D000CACF933049F48111C6CF4130510519F662
:1028E00080916B028260F2CF953041F48091E800D4
:1028F00080FFFCCF20682093E300B5CF963009F02D
:10290000A9C00B8D1C8D22E01092E9001092670285
:1029100010926602F2122EC01092650210926402AA
:102920000E94EB021F8299E09983FA8291E09E83D4
:1029300090EA98879AEF9987209166023091670212
:10294000275F3F4F3C832B838D831092E9001092C9
:10295000670210926602109365020093640249E0D8
:1029600050E0BE016F5F7F4F80E00E9493020E94A3
:10297000EB0279CF10936502009364020E94D702A4
:10298000DC0112960D911C910115110509F451C13C
:10299000D801ED91FC910480F581E02DBE016B5EC4
:1029A0007F4FC8010995009709F03EC1F8010085E5
:1029B0001185EACFF3E0FF120EC08F89882309F456
:1029C00040C0823061F440E860E18FE692E00E940E
:1029D0006002811148CF81E28093EB0047CF8130C4
:1029E00029F440E86BE083E692E0F1CF833099F779
:1029F0000E94D702DC011296ED90FC908E010F5FD1
:102A00001F4F6801E114F10479F0D701ED91FC91B9
:102A10000680F781E02DB801C7010995080F111D47
:102A2000F701E084F184EECFD8011C92F601019009
:102A30000020E9F73197BF016C197D0940E0C6011C
:102A4000C6CF6DE472E0FB01449150E080E80E9443
:102A5000930209CF973009F4BECF983021F481E07A
:102A60008093F10000CF993009F0FDCE837009F01A
:102A7000B2CFE1E0F1E081E031E096E32191222361
:102A800071F08093E9003093EB00DF0111972C91F6
:102A90002093EC009093ED008F5F873079F78EE7FD
:102AA0008093EA001092EA008F898093BD02DBCE0A
:102AB0008B8D9C8D1092E900109267021092660235
:102AC0009093650280936402898D811192C08E89F2
:102AD0009D89913A49F4813209F07DCF47E050E079
:102AE0006BE071E080E0B3CF913209F074CF8332B4
:102AF00069F48F89988DB0E0A0E0809307019093EE
:102B00000801A0930901B0930A01ADCE803269F4A7
:102B10008091E80082FFFCCF67E08BE091E00E94AB
:102B2000CA028BEF8093E8009ECE823209F09BCEE2
:102B30008F8980931201EEEFFFE7859194918B3F8F
:102B40009C4D51F1E0E0F8E080910B0190910C0177
:102B5000A0910D01B0910E01803B9440A105B105FB
:102B6000F1F48091120180FD1AC0EE3F8AE0F8076F
:102B700089F587E797E79183808380916000809350
:102B8000680288E19BE00FB6F894A89580936000F6
:102B90000FBE9093600067CEEEEFFAE0D5CF808154
:102BA00091818737974709F05ECEA89580916000A4
:102BB0008861809360008091680280936000EE3F9E
:102BC0002AE0F20789F08091FE0A9091FF0A918332
:102BD000808349CE808191818737980751F2909305
:102BE000FF0A8093FE0AC5CF1092FF0A1092FE0AD8
:102BF0003ACE0E94D702DC0112960D911C9101156C
:102C0000110509F4E8CED801ED91FC910190F08115
:102C1000E02DBE016B5E7F4FC8010995811123CE67
:102C2000F80100851185EBCF181619060CF41BCEA0
:102C3000D2CEF1E0FF12BECE61E572E004CF1F926A
:102C40000F920FB60F9211242F933F938F939F9360
:102C5000AF93BF938091500290915102A091520284
:102C6000B091530230914F0223E0230F2D3758F5D6
:102C70000196A11DB11D20934F02809350029093A5
:102C80005102A0935202B09353028091540290914A
:102C90005502A0915602B09157020196A11DB11D97
:102CA0008093540290935502A0935602B09357021A
:102CB000BF91AF919F918F913F912F910F900FBE38
:102CC0000F901F90189526E8230F0296A11DB11DA5
:102CD000D2CF1F920F920FB60F9211242F933F93D2
:102CE0004F935F936F937F938F939F93AF93BF9314
:102CF000EF93FF938091B900887F803609F44AC032
:102D0000F0F5883209F4A7C018F5803109F49BC0AA
:102D1000B8F4882309F4F9C0883009F494C0FF910D
:102D2000EF91BF91AF919F918F917F916F915F9143
:102D30004F913F912F910F900FBE0F901F901895BC
:102D4000883109F488C0803251F78093050314C09C
:102D5000803409F49DC040F48033B9F38833F9F628
:102D60008093050385ECB0C0803509F485C08835B3
:102D700009F496C0883499F60E947D06D0CF883930
:102D800009F48CC038F5883729F050F4883611F0F2
:102D9000803729F683E08093070310924E0257C0D4
:102DA000883809F47BC0803919F0803809F0B7CF32
:102DB00080914E02803208F071C0E0914E0281E0B5
:102DC0008E0F80934E028091BB00F0E0E25DFD4FDC
:102DD00080833DC0803B39F0E0F4803A09F479C04B
:102DE000883A09F09CCF84E08093070310922D026B
:102DF00010922C02E0916E02F0916F020995809181
:102E00002C0281110FC081E080932C0210920C02E1
:102E100009C0803C09F4A6CF883C09F4A3CF883BC5
:102E200009F07DCFE0912D0281E08E0F80932D027D
:102E3000F0E0E45FFD4F80818093BB0090912D0214
:102E400080912C0229C08091E2028093BB0085EC26
:102E50008093BC0064CF9091040380910303981782
:102E600058F5E091040381E08E0F80930403F0E0B5
:102E7000ED51FD4F8081E9CFE091040381E08E0F99
:102E8000809304038091BB00F0E0ED51FD4F8083FF
:102E900090910403809103039817C8F285E8D8CF76
:102EA000E091040381E08E0F809304038091BB00C6
:102EB000F0E0ED51FD4F80838091060381115CCFDE
:102EC00081E08093E10284EA8093BC0010920703C2
:102ED00026CF85EC8093BC001092070380914E02B0
:102EE000803230F4E0914E02F0E0E25DFD4F10825E
:102EF00060914E0270E0E0916C02F0916D028EE202
:102F000092E0099510924E020ACF1092050334CF39
:102F1000EF92FF920F931F93CF93DF93CDB7DEB75E
:102F2000C659D1090FB6F894DEBF0FBECDBF1092BF
:102F30002F0310922E0388EE93E0A0E0B0E0809380
:102F4000300390933103A0933203B093330325EA07
:102F500031E030932D0320932C032FEF3FEF30937C
:102F600039032093380310927F0310927E038093DD
:102F7000800390938103A0938203B093830387EB34
:102F800091E090937D0380937C03109296031092BE
:102F900098031092970310929A03109299038091CC
:102FA0008E03811113C0109289031092880380E868
:102FB00092E090938B0380938A038CE390E090934C
:102FC0008D0380938C0381E080938E030E9413090C
:102FD000FC01A385B485109709F0A8C188E893E0A7
:102FE000948783878585968520918C0330918D0306
:102FF000820F931F968785871092B5031092B403B2
:1030000089EC91E09093B3038093B2038091AA037B
:10301000811113C01092A5031092A4038CEB92E0CF
:103020009093A7038093A6038FE290E09093A90367
:103030008093A80381E08093AA030E941309FC01F6
:10304000A385B485109709F07CC184EA93E0948746
:103050008387858596852091A8033091A903820FE7
:10306000931F96878587ECE7F4E083EB94E0138267
:10307000148235968E179F07D1F7E0E5F4E081E0E2
:1030800090E0108293838283349624E0EC37F20739
:10309000C1F7E1EFF3E0AFEF84E6A5831086118678
:1030A000128613861486108A818B828B739694E025
:1030B000E035F90791F780EB90E09093EE03809371
:1030C000ED0388E590E09093F0038093EF03109276
:1030D000C5031092C4031092C8031092CC0310923F
:1030E000CB038FEF93E09093CE038093CD031092A8
:1030F000D0031092CF039093D2038093D10353E077
:103100005093D30377E07093C70381E08093C903A2
:103110005093CA03E5E0E9838A8399E09B83EC83BB
:10312000F1EAFD838E8325E82F835887E9879A8704
:1031300029E12B878C8729E22D877E8705E10F8780
:10314000188A15E2198B8A8B45E74B8B8C8B35E9F6
:103150003D8B7E8B25E52F8B188EB5E6B98F1A8EA9
:1031600021E82B8F62E06C8F4D8F8E8F3F8F88A36D
:1031700029A35AA3EBA38CA39DA3E9E3EEA30FA37A
:1031800018A619A77AA775E37BA71CA676E47DA7E6
:103190007BE37EA78FA7B8AB74E179AB4AAB74E051
:1031A0007BAB3CAB8DAB2EAB6FAB48AF89AF3AAFCF
:1031B0007BAF2CAF5DAF9EAF8FAF56E121965FAF77
:1031C000219722968FAF229780E823968FAF23977F
:1031D00086E224968FAF24972596AFAF25978FE789
:1031E00026968FAF269727964FAF279780E1289690
:1031F0008FAF289729963FAF29972A966FAF2A97C6
:103200002B96FFAF2B972C961FAE2C972D969FAF2A
:103210002D9780E32E968FAF2E972F969FAF2F97E7
:1032200081E360968FAF609761962FAF619762964A
:103230006FAF629780EC63968FAF639764968FAFA2
:10324000649783E590E00E9468337C0183E5FE018A
:103250003196D70101900D928A95E1F787E090E0D1
:103260000E9468338C01DC0111961C921E92139609
:10327000FC92EE92129783E590E015969C938E93C4
:10328000149716961C920E941708FC01A385B4851A
:10329000109709F061C01487038785859685D8014A
:1032A00014962D913C91820F931F9687858790915C
:1032B000C703892F869586958695977009F054C027
:1032C0008093C8031091C803812F90E00E94683357
:1032D0009093C5038093C40381E09091C903911139
:1032E00001C080E01C5F810F8093D4031092BF0364
:1032F0001092BE031092C1031092C0038FEF9FEF94
:103300009093C3038093C20390E080E02091C803B0
:103310002817190659F154F1E091C403F091C5033F
:10332000E80FF91F10820196F1CFDC018D919C917D
:1033300011970097D1F788E893E08D939C9352CE34
:10334000DC018D919C9111970097D1F784EA93E06D
:103350008D939C937ECEDC018D919C91119700976B
:10336000D1F70D931C9399CF8F5FAACFCA56DF4F29
:103370000FB6F894DEBF0FBECDBFDF91CF911F9186
:103380000F91FF90EF900895CF93DF93CDB7DEB705
:10339000CF54D1090FB6F894DEBF0FBECDBF7894DD
:1033A00084B5826084BD84B5816084BD85B582604A
:1033B00085BD85B5816085BD80916E0081608093FB
:1033C0006E00109281008091810082608093810064
:1033D0008091810081608093810080918000816074
:1033E0008093800080919100826080939100809111
:1033F0009100816080939100809190008160809322
:1034000090008091C10084608093C1008091C100D0
:1034100082608093C1008091C10081608093C1006F
:103420008091C30081608093C3008091C00082605E
:103430008093C0008091C20081608093C20080911F
:103440007A00846080937A0080917A008260809311
:103450007A0080917A00816080937A0080917A006E
:10346000806880937A001092BD0210926B021092D5
:103470006A028091D70081608093D70080EA8093B0
:10348000D80089B5806189BD89B5826089BD09B4DC
:1034900000FEFDCF61E070E080E090E00E94010559
:1034A0008091D8008F7C80618093D8008091E0006B
:1034B000807F8093E0008091E1008E7E8093E10028
:1034C0008DE08093E200559A209A0E9446108FEF7B
:1034D0009FEF909339038093380364EF71E080E0AD
:1034E00090E00E9401051092BF021092BE0210925D
:1034F000090310922B031092070311E010930603A7
:103500001092E10261E082E00E945B0461E083E0EE
:103510000E945B048091B9008E7F8093B9008091F6
:10352000B9008D7F8093B90088E48093B80085E46A
:103530008093BC0080E392E090936F0280936E02D0
:1035400081E392E090936D0280936C0261E080E3EE
:103550000E9431076AE070E080E090E00E9401057F
:1035600068E080E30E9431076AE070E080E090E06C
:103570000E94010560E986E00E9431076AE070E080
:1035800080E090E00E94010560EC88E00E94310735
:103590006AE070E080E090E00E94010560E48AE16A
:1035A0000E9431076AE070E080E090E00E9401052F
:1035B00063E383E30E9431076AE070E080E090E01B
:1035C0000E94010564E670E080E090E00E94010541
:1035D00064EF71E080E090E00E940105809161015C
:1035E000882309F4F7C01092CC031092CB0380E03B
:1035F00090E19093CE038093CD031092D00310926C
:10360000CF039093D2038093D1031093C6030E94FB
:10361000F40B64EF71E080E090E00E94010580E02F
:1036200094E1909353018093520180E09FE0909346
:1036300055018093540184E08093500182E080938F
:103640005A014FEF60E084E094E00E946A0B64E06E
:1036500080E00E94DC0B64E081E00E94DC0B64E00F
:1036600082E00E94DC0B11E01093080382E5809356
:103670002A031092090310922B0380EF90E00E941E
:103680002C0785E590E00E942C0781E00E94A101B3
:10369000109308031092090310922B038BEF90E014
:1036A0000E942C0790E080E00E942C0781E00E949D
:1036B000A1012091760130917701409178015091DC
:1036C000790160962CAF3DAF4EAF5FAF6097AE0112
:1036D0004B5E5F4F5F8F4E8F10E056E0352E02E05D
:1036E00080911301181708F0EEC0212F30E0690116
:1036F000CC0CDD1CCC0CDD1CC601805B9B4F7C011F
:10370000DC018C91123008F0AFC0F901EB57FD4F8E
:103710004F012080A60143585D4F5DA74CA7DA01F9
:103720004D905D906D907C90220F331FF901EE5605
:10373000FE4FA080B1800E943204F70122813381C4
:103740008217930709F46BC093838283892B09F056
:1037500058C00E94E305ACA5BDA56D937D938D93E4
:103760009C931397113039F590916601992329F0B4
:1037700080917C028F5F80937C02F0906201FF2039
:1037800021F080915B01811106C09923A1F0809105
:103790007C02863080F0B1E0FB128FC060E070E107
:1037A00090E080E00E94210DF092B30210927C0222
:1037B000E1E0E0931401F601E05BFB4F218135E08D
:1037C0002303F0011124E458FB4F84818F5F84832D
:1037D0001F5F86CF80E090E1A0E0B0E080939B0384
:1037E00090939C03A0939D03B0939E0380939F03AB
:1037F0009093A003A093A103B093A2031093A303FB
:1038000008CFE181113041F41092B3021092880286
:103810001093550410921401D4011C9242C0A114BB
:10382000B104B1F2892BA1F60E94E305AB01BC0102
:103830004419550966097709C501BB0CAA0BBB0BD6
:1038400084179507A607B70718F62110C1CF109265
:10385000B3021092140121E0F4012083113009F029
:10386000B7CF10938802B4CF0E943204D7011296CA
:103870002D913C9113978217930709F4A9CF1396C2
:103880009C938E931297892B51F4143009F093CFA7
:10389000809163018823A1F0009361048CCF11967D
:1038A000EC91B5E0BE9FF0011124E458FB4F8481F8
:1038B000882309F48DCF81508ACF0093550476CFA9
:1038C0003092610478CF66E070E082E590E00E947B
:1038D000EF0D06E712E0F12C9091BE028091BF023D
:1038E000981759F08CE793E00E94BD06F801819388
:1038F0008F01F394F6E0FF12EFCF21E0209308034D
:1039000082E580932A031092090310922B0390E022
:1039100080E00E942C0781E00E94A10136E0F312B2
:103920004FC080917B02982F90959170998390E081
:1039300080959095869581708A83809176028F57C5
:10394000990B209177022058330B41E02F3131053C
:103950000CF440E04B8341E08F3191050CF440E0E2
:103960004C8341E0223E3F4F0CF040E04D8321E08C
:10397000823E9F4F0CF020E02E839E012F5F3F4F31
:10398000A0E7B2E080E052E0823008F055E0580F46
:10399000F90141919F019D91491779F095E0959F1B
:1039A000F0011124E458FB4F9481442309F4D2C060
:1039B0009F5F9483FD01319740838F5F863019F7B5
:1039C000A4E2B1E0BDA3ACA31BE5C12E11E0D12E52
:1039D0008D018AE0E82EF12CF80182819381B701F4
:1039E0000E943333CB010E94BF0D81ED91E00E9414
:1039F0006E0DD80114968D919C91B7010E943333BE
:103A0000CB010E94BF0D81ED91E00E946E0DF80187
:103A100086819781B7010E943333CB010E94BF0D8D
:103A200081ED91E00E946E0DD80118968D919C91C8
:103A3000B7010E943333CB010E94BF0D81ED91E0AD
:103A40000E946E0DF8018081082E000C990B0E94D7
:103A5000BF0D81ED91E00E946E0DD8011A968C91F8
:103A6000082E000C990B0E94BF0D81ED91E00E9481
:103A70006E0D055F1F4FC016D10609F0ADCF0CE7E4
:103A800014E0F12CF801648170E090E080E04AE0FD
:103A90000E947B0DFAE0FF1621F081ED91E00E947B
:103AA0006E0DF3940B5F1F4F2BE0F212EBCF83ED03
:103AB00091E00E946E0D6EE070E080E090E00E9468
:103AC000010580918504882331F04FEF60E081EF9C
:103AD00093E00E946A0B80918A04882331F04FEFB3
:103AE00060E084E094E00E946A0B10926201109200
:103AF00063011092660100E018E0EE24EA94EFE31F
:103B0000FE2EC12CF0E1DF2EA3E17A2E8CE293E0B1
:103B10000E94CC03892BC9F18CE293E00E948A03B6
:103B2000B82E33E5831320C08CE293E00E948A0311
:103B30008053863088F041E04093010440931404A0
:103B40004093270440933A0440934D0481E08093CE
:103B50008702DCCF91502DCF789EF0011124EF50D9
:103B6000FC4F51E0508BF2CF95E4B912D3C31092C1
:103B70000104109214041092270410923A04109237
:103B80004D04109287020E9446108091880288237B
:103B900009F180915B0160E0882309F43FC58091C1
:103BA0006201882309F43AC580E00E94DC0BE1E061
:103BB000F0E0EC5EFE4F808193E1989FF0011124CC
:103BC000EF50FC4F2089211105C04FEF60E0CF017D
:103BD0000E946A0B01EF13E030E5E32E34E0F32E90
:103BE000D8011F968C911F97882319F118968C91F4
:103BF0001897882309F41FC50E94E305F801818402
:103C00009284A384B484AB01BC01481959096A09A0
:103C10007B0981819281092E000CAA0BBB0B4817EE
:103C200059076A077B0728F04FEF60E0C8010E9440
:103C3000780A0D5E1F4FE016F10691F6809165013E
:103C4000882309F460C08091B202863909F05BC014
:103C500082E10E94BA048C016091160170E090E04C
:103C600080E00E94292F6B017C01B801110F880BA5
:103C7000990B0E942B2F23E030E040EA5BE30E9487
:103C80008A2F20E030E040E05FE30E94B93020E07E
:103C900030E048EC52E40E948A2FA70196010E946E
:103CA000B9304B015C016091170170E090E080E059
:103CB0000E94292FA70196010E94B9309B01AC01F7
:103CC000C501B4010E949D3120E030E046EC52EC89
:103CD0000E948A2F20E030E048EC52E40E94BA3083
:103CE00020E030E040E05FE30E94BA300E940F32F3
:103CF000CB01181619060CF0ABC4653671050CF033
:103D0000A9C4609302048091EF03B1E0B09308036B
:103D100080932A031092090310922B0386E390E00C
:103D20000E942C0781E00E94A10160E170E0809177
:103D3000EF039091F0030E94EF0D1091BE0280916D
:103D4000BF02E12FE81BFF0B709709F085C48E01BD
:103D50000F5F1F4F6E01F1E1CF0ED11C78018CE790
:103D600093E00E94BD06D7018D937D01CA16DB0644
:103D7000B1F7E5EDF3E0F9A3E8A34DEE53E0D80188
:103D800013966C911397862F90E09C0174E0220F9C
:103D9000331F7A95E1F72227337011967C911197A2
:103DA000270F311D31832083880F991F880F991F9A
:103DB0008827937012962C91820F911D9383828392
:103DC0006F7070E0758364830D5F1F4F36964E17DA
:103DD0005F07A9F660962CAD3DAD4EAD5FAD609727
:103DE0002D8B3E8B4F8B588F298B3A8B4B8B5C8B5B
:103DF00019821A821B821C824091B0025091B1023A
:103E000026EF2403C001259F900D11249BAB8AABA4
:103E10004091AE025091AF022403D001259FB00D16
:103E20001124BBAFAAAF2091AA023091AB024091FE
:103E3000AC025091AD022EAB3FAB48AF59AF5058DA
:103E400028A739A74AA75BA704E211E0212C1CA6EA
:103E5000312CA8A1B9A18D919C91BAE0B89FB00175
:103E6000B99F700D1124E8A1F9A182819381B89FB7
:103E70003001B99F700C11242481663FF7E27F075F
:103E800031F436EF631637E2730609F4F4C34AA936
:103E90005BA9640F751F8AAD9BAD680E791ED801B2
:103EA00012968D919C91FB01E81BF90BCF01F7FF56
:103EB00003C0919581959109893E934084F4D8017E
:103EC00014968D919C91F301E81BF90BCF01F7FF3C
:103ED00003C0919581959109893E934044F0D801A2
:103EE0008C918F3F21F0EFEFEC9311961C92D8014B
:103EF00013967C936E93129715967C926E921497FC
:103F0000663FB7E27B0751F4E6EF6E16E7E27E0606
:103F100029F4EFEFD801EC9311961C92D8011A9670
:103F20002C937451072E000C880B990B0E942B2F99
:103F30006EA77FA788AB99AB20E030E044E353EC59
:103F40006EA97FA988AD99AD0E94242F87FF8EC3EB
:103F500020E030E044EB53E468A579A58AA59BA551
:103F60000E94B930F62FE72FDC0125E33AEF4EE847
:103F70005CE36F2F7E2FCD010E948A2F4B015C01E5
:103F80000E9498316B017C01B3017F50072E000C19
:103F9000880B990B0E942B2F2B013C01C501B4010A
:103FA0000E94B8324B015C01A70196016EA57FA566
:103FB00088A999A90E948A2F6CAF7DAF8EAF9FAF61
:103FC000A5019401C301B2010E948A2F9B01AC019B
:103FD0006CAD7DAD8EAD9FAD0E94B93020E030E07C
:103FE00040EA55E40E94BA300E940F32F80177830C
:103FF0006683A50194016EA57FA588A999A90E9451
:104000008A2F4B015C01A3019201C701B6010E94F6
:104010008A2F9B01AC01C501B4010E94BA3020E097
:1040200030E040E755E40E94BA300E940F32D801D8
:1040300019967C936E931897E5E1F0E0EC0FFD1F65
:10404000BCA5EB0FF11D3082BF5FBCA7F8018081DA
:104050008F3FA1F02394082E000C990BE1E0F0E0D3
:10406000EC0FFD1FE80FF91F21E0208341E150E034
:104070004C0F5D1F840F951FDC013C92339448A1C7
:1040800059A14A5F5F4F59A348A3055F1F4F54E0F2
:104090003512DFCE2D8E81E09CA5911180E08093BA
:1040A0006001ACA5A33008F4F4C280E591E0E4E23D
:1040B000F1E02FEF3181BCA53B1710F42083118272
:1040C0003B968E179F07B1F7EDB7FEB7FFABEEAB90
:1040D0003CA5232F30E039A728A72150310939A367
:1040E00028A34DB75EB788A599A5481B590B0FB6F5
:1040F000F8945EBF0FBE4DBFADB7BEB711964D0170
:10410000EDB7FEB7E81BF90B0FB6F894FEBF0FBE74
:10411000EDBF2DB73EB72F5F3F4F59019D01A50160
:10412000FE0175968191D9018D939D01DA018D93E0
:10413000AD018E2FBE8D8B1B9CA5891798F3D401E2
:10414000119691E05BE04D918FEF890F4503F001EF
:104150001124EC5DFE4F66817781282F082E000C1C
:10416000330BF401E20FF31F10812F5F3F4F7401F7
:10417000E20EF31E1503900111242C5D3E4FF90150
:10418000268137816217730724F4F7011083815069
:1041900020F7F401E80FF11D87FDFA9541839F5F39
:1041A000FCA59F1780F2D501119691E05BE04D913F
:1041B0008FEF890F4503F0011124EC5DFE4F608500
:1041C0007185282F082E000C330BF501E20FF31F29
:1041D00010812F5F3F4F7501E20EF31E1503900112
:1041E00011242C5D3E4FF90120853185621773073C
:1041F00024F4F7011083815020F7F501E80FF11D39
:1042000087FDFA9541839F5FFCA59F1780F2D4013B
:104210001196CC901197EC2D0C2C000CFF0BFBABE6
:10422000EAABDC902D2D0D2C000C330B3FA72EA7F5
:104230008BE04D2D480290011124D901AC5DBE4F99
:104240007D01BC2DB802C0011124FC01EC5DFE4FC4
:104250001F012481358142815381D70114966D91CC
:104260007C91159712968D919C910E94800E2B0146
:104270003C0120E030E84BEB55E40E94AB321816CD
:1042800024F460E080E00E94DC0B8D8DBCA5B23090
:1042900009F013C3813009F032C4CE014D967C0180
:1042A0008E010F5E1F4F9E012F5F3F4F4C2D6D2DD6
:1042B00082E00E94EF0EC8A4D9A492E0C91AD108E6
:1042C000D401AC0DBD1DE8A1F9A1E80DF91D9701C0
:1042D0002C5131094C91608180E00E94EF0ED50194
:1042E000AC0DBD1DE8A1F9A1EA0DFB1D9E012F5FDC
:1042F0003F4F4C91608181E00E94EF0E9E012F5F45
:104300003F4FD50111964C9111976C9183E00E941B
:10431000EF0ED4C3ADE4BA12D6C08CE293E00E9493
:104320008A0370ED972E980E8CE293E00E948A0328
:10433000B6E0B91508F4EACB60ED862E880EA92CFC
:10434000B12CF501EA56FE4F8081881508F4812CC6
:10435000911080C080911301981608F052C024E09B
:10436000929EF0011124E05BFB4F218135E0230395
:10437000F0011124E458FB4F80819091610191304C
:1043800051F5823031F182819091C703891708F588
:10439000E82FE695E695E6952091C4033091C50394
:1043A000E20FF32FF11D877021E030E040E050E094
:1043B00004C0220F331F441F551F8A95D2F7922F36
:1043C00090958081892380838091C60381110E940A
:1043D000F40B9394BFCF618181110EC0605360953F
:1043E000809196036823609396038091A3038823AA
:1043F00081F30E944809EDCF82EB93E00E94990976
:10440000E8CF882061F11092CC031092CB03D092B8
:10441000CE03C092CD031092D0031092CF03D0925E
:10442000D203C092D10331E03093C6030E94F40B53
:104430001093BF030093BE038091C60381110E94B5
:10444000F40B1093C1030093C0038091C603811144
:104450000E94F40BF501EF59FE4F808257CB109369
:10446000BF030093BE038091C60381110E94F40B29
:104470001093C1030093C0038091C60381110E9471
:10448000F40B80E090E1A0E0B0E080939B03909378
:104490009C03A0939D03B0939E0380939F039093EE
:1044A000A003A093A103B093A20391E09093A30370
:1044B000F0929803E0929703F0929A03E0929903A6
:1044C0000E944809C7CFAAE5BA123CC08CE293E02B
:1044D0000E948A03893589F40E942106B62E0E9423
:1044E00021067C8F6B8F8B2D90E0BE01655E7F4F28
:1044F000880F991F0E94360E09CB8334A9F4912CA2
:10450000812CAA24AA94BA2CBA8EA98EBE01675E09
:104510007F4FC4010E94360EB2E08B0E911CE4E680
:104520008E16910489F7F2CA843409F0EFCA0E940A
:104530002106862F6FEF7FEF90E00E945A0E0E94B7
:10454000BF0DE4CA80918702882309F4DFCAF3E72C
:10455000BF1231C08CE293E00E948A03C09751F0F1
:1045600080910104882331F04FEF60E081EF93E008
:104570000E946A0B8091E002882309F4C7CA3CE4D8
:10458000B312C4CA8CE293E00E948A03B82E0E9440
:104590002106462F52E5B51223C0809127048823B7
:1045A00009F4B4CA61E0411101C060E087E194E020
:1045B0000E94780AABCA22E7B212DCCF8CE293E009
:1045C0000E948A03209114042223A1F24FEF61E09C
:1045D000C09709F460E084E094E00E94780ACACFB2
:1045E00087E4B8120CC080913A04882309F48ECA7B
:1045F00061E0411101C060E08AE294E0D9CF92E429
:10460000B91284CA80914D04882309F47FCA61E0FD
:10461000411101C060E08DE394E0CACF80E00E94C8
:10462000DC0B60E081E00E94DC0B60E082E00E9435
:10463000DC0BE0E0BDCA17968C911797882309F42C
:10464000F8CA15964C9160E0C8010E946A0BF1CA45
:1046500061E057CB64E655CB8091BF02181709F48F
:10466000A6C58CE793E00E94BD06F6CFF8A5E9A5A4
:10467000AAA5BBA57ACCF801738262827582648296
:104680002FEF208311821286778266827186608680
:10469000F5CC3CA5323009F417CD9D8D98A780E567
:1046A00091E0ACA1BDA111962C91B8A52B1730F4C7
:1046B000ECA1FDA120812F3F09F0B1834CA15DA1A8
:1046C000455F5F4F5DA34CA38417950751F758A52D
:1046D000552309F422C5BB80BB2009F4F9C28981A6
:1046E000882309F4F5C2EB898BE0E802F00111247C
:1046F000EC5DFE4FA989A802D0011124AC5DBE4F2C
:1047000014962D913C91159712964D915C91648170
:104710007581828193810E94C50E20EE3EE245E6BE
:1047200052E40E948A2F2B013C0120E030E0A901D5
:104730000E94242F87FF0AC020E030E044EB53E4BE
:10474000C301B2010E94BA302B013C011C8111232C
:1047500009F4C2C28A81882309F4BEC2EC898BE0C5
:10476000E802F0011124EC5DFE4FAA89A802D001F5
:104770001124AC5DBE4F14962D913C911597129665
:104780004D915C9164817581828193810E94C50EF7
:1047900020EE3EE245E652E40E948A2F6B017C0146
:1047A00020E030E0A9010E94242F87FF0AC020E00A
:1047B00030E044EB53E4C701B6010E94BA306B010C
:1047C0007C0188A5813009F09DC5DE0111966D013F
:1047D0002AE9E22E22E0F22E10E000E0702EF6012F
:1047E00081916F01882309F4D4C2D7018D909D90E7
:1047F000AD90BC9020E030E0A901C501B4010E9459
:10480000242F882309F4C5C2FE01E00FF11FE189BE
:10481000C090AA02D090AB02E090AC02F090AD0242
:104820000E2F0E2E000C110BBBE0EB02F001112439
:10483000EC5DFE4F62817381272D2D7F072E000CCA
:10484000880B990B21114CC20E942B2F2B013C018C
:1048500020E030E044E353E4C701B6010E94AB32EC
:10486000181654F420E030E044EB53E4C701B601DD
:104870000E94B9306B017C0125E33AEF4EE85CE31E
:10488000C701B6010E948A2F6B017C010E949831FA
:104890009B01AC01C501B4010E948A2FA3019201C2
:1048A0000E94BA300E940F327093530160935201FC
:1048B000C701B6010E94B8324DC2ECA58E1710F0A8
:1048C0000C941A2FE43009F0E8CC84E08D8F2BE0B3
:1048D0004EA55FA5249FF001259FF00D1124EC5DEE
:1048E000FE4F82E0808351E05B83DB8AD401139624
:1048F0001C911203F0011124EC5DFE4F10825983CC
:10490000198BF5018381D81619F0E3E0181301C063
:10491000E2E0EA0DFB2DF11D00812BE00202F00127
:104920001124EC5DFE4F31E030833A830A8BD501D0
:104930009C9181E0D91611F0191380E0A80EB11CEA
:10494000F501C0802BE03C2D3203F0011124EC5D19
:10495000FE4F83E0808341E04C83CC8AD7011296DE
:104960002D903C9013971496ED91FC91F9A7E8A730
:104970001202F0011124EC5DFE4FE280F3802481ED
:10498000358139A328A3A70168A579A5C1010E9493
:10499000800E4B015C0120E030E0A9010E94AB32A7
:1049A000181624F0B7FAB094B7F8B094ABE03C2DE9
:1049B0003A02F0011124EC5DFE4F0A02D0011124ED
:1049C000AC5DBE4F14962D913C91159712964D916A
:1049D0005C9164817581828193810E94800E2B019C
:1049E0003C0120E030E0A9010E94AB32181624F00F
:1049F00077FA709477F87094A5019401C301B2011D
:104A00000E949D3123E333E343E95FE30E94AB322D
:104A100018160CF053C028A139A1A70168A579A5E3
:104A2000C1010E94C50E20EE3EE245E652E40E941E
:104A30008A2F4B015C0120E030E0A9010E94242F65
:104A400087FF0AC020E030E044EB53E4C501B40125
:104A50000E94BA304B015C01C501B4010E94470AB3
:104A60004B015C0120E030E044EB52E40E94242F33
:104A7000181664F11A8BC98ADC8A0B8B29893BE0F2
:104A80002303D0011124AC5DBE4F1C922A8923035D
:104A9000D0011124AC5DBE4F41E04C932B89230320
:104AA000D0011124AC5DBE4F82E08C932C8923038E
:104AB000F0011124EC5DFE4F83E080838EA99FA955
:104AC0000FB6F8949EBF0FBE8DBFE7CD20E030E05B
:104AD00047E853E4C501B4010E94AB3287FDCECF55
:104AE00020E030E044EB53E4C501B4010E94242FE0
:104AF000181624F2DA8ACB8A1C8B098BBFCF81115E
:104B0000DDCF20E030E84BEB55E4C301B2010E9459
:104B1000AB3218169CF2F5018081D81282C0D70101
:104B20001296AD90BC90139714968D909C9020E0B7
:104B30003EE150E040E0B401C5010E94800E2B012F
:104B40003C01F10102811381E480F58020E03EE127
:104B500050E040E0B701C8010E94800E9B01AC010B
:104B6000C301B2010E94BA302B013C0130E020E0C9
:104B700050E040E0B401C5010E94800E4B015C0191
:104B800030E020E050E040E0B701C8010E94800E14
:104B90009B01AC01C501B4010E94BA309B01AC017C
:104BA000C301B2010E94AB3218160CF087C081E03D
:104BB00090E0E2E0F0E02BE04EA55FA5249FD0015D
:104BC000259FB00D1124AC5DBE4FEC93A1E0B0E089
:104BD000AC0FBD1FAE0FBF1F51E05C93A1E1B0E071
:104BE000AC0FBD1FEA0FFB1FD0824AA95BA9249F0F
:104BF000F001259FF00D1124EC5DFE4F8083A1E0B4
:104C0000B0E0AC0FBD1FA80FB91F51E05C93E1E10C
:104C1000F0E0EC0FFD1FE80FF91FC08282E08D8FDE
:104C20004DCF8181D8124ACFF701A280B380848012
:104C3000958020E03EE140E058E2B401C5010E94C9
:104C4000800E2B013C01D10112960D911C911397FE
:104C50001496ED90FC9020E03EE140E058E2B70170
:104C6000C8010E94800E9B01AC01C301B2010E94E9
:104C7000BA302B013C0130E020E040E058E2B401C2
:104C8000C5010E94800E4B015C0130E020E040E055
:104C900058E2B701C8010E94800E9B01AC01C5011A
:104CA000B4010E94BA309B01AC01C301B2010E9461
:104CB000AB32181644F083E090E07BCF90E080E0C8
:104CC000E3E0F0E078CF90E080E0E1E0F0E073CF67
:104CD000412C512C32013ACDC12CD12C760171CD11
:104CE0000E942B2F2B013C0120E030E044E353E4F1
:104CF000C701B6010E94AB32181654F420E030E030
:104D000044EB53E4C701B6010E94B9306B017C014A
:104D100025E33AEF4EE85CE3C701B6010E948A2F13
:104D20006B017C010E94B8329B01AC01C501B4014A
:104D30000E948A2F9B01AC01C301B2010E94B930CD
:104D40000E940F327093530160935201C701B60164
:104D50000E9498316B017C018BE0809FF001819F64
:104D6000F00D1124EC5DFE4F64817581072E000C5F
:104D7000880B990B0E942B2F2B013C01A701960158
:104D8000C501B4010E948A2F9B01AC01C301B2018D
:104D9000B6C30F5F1F4FE4E0EE0EF11C04301105A7
:104DA00009F01CCD80918902882309F4B6C1809056
:104DB000AA029090AB02A090AC02B090AD0200911C
:104DC0005401109155016091520170915301072EC9
:104DD000000C880B990B0E942B2F20E030E040EA5A
:104DE00055E40E94B9302B013C0177FA709477F8B2
:104DF000709475016401F7FAF094F7F8F09420E0EC
:104E000030E044E353ECC501B4010E94242F87FF36
:104E10000AC020E030E044EB53E4C701B6010E9431
:104E2000B9306B017C0125E33AEF4EE85CE3C70142
:104E3000B6010E948A2F4B015C010E9498316CA33D
:104E40007DA38EA39FA3B801110F880B990B0E941D
:104E50002B2F20E030E040E755E40E94B9306B0191
:104E60007C01C501B4010E94B8324B015C012CA148
:104E70003DA14EA15FA1C301B2010E948A2F68A388
:104E800079A38AA39BA3A5019401C701B6010E943F
:104E90008A2F9B01AC0168A179A18AA19BA10E94E4
:104EA000BA3020E030E040EA55E40E94BA3068A30E
:104EB00079A38AA39BA3C701B60190582CA13DA159
:104EC0004EA15FA10E948A2F6B017C01A501940174
:104ED000C301B2010E948A2F9B01AC01C701B60138
:104EE0000E94BA3020E030E040E755E40E94BA303A
:104EF0004B015C0120919A0230919B0240919C02EF
:104F000050919D0268A179A18AA19BA10E94B9300C
:104F10006CA37DA38EA39FA32091A6023091A7022C
:104F20004091A8025091A902C501B4010E94B93074
:104F30006B017C01AC019B0160E070E080E795E4CF
:104F40000E94B9302B013C0120919E0230919F02BA
:104F50004091A0025091A102C501B4010E94B93054
:104F6000A70196010E94B9309B01AC01C301B201B7
:104F70000E949D3120E030E040E855E40E948A2FF5
:104F800020E030E0A9010E94BA3020E030E040E0AB
:104F90005FE30E94BA300E940F322B01609118012A
:104FA00070911901072E000C880B990B0E942B2F72
:104FB0006B017C012CA13DA14EA15FA160E070E0DE
:104FC00080EA95E40E94B9304B015C012091A20275
:104FD0003091A3024091A4025091A50268A179A149
:104FE0008AA19BA10E94B9302CA13DA14EA15FA135
:104FF0000E94B9309B01AC01C501B4010E949D31F2
:1050000020E030E040E855E40E948A2F20E030E0C4
:10501000A9010E94BA3020E030E040E05FE30E9446
:10502000BA300E940F32072E000C880B990B0E9499
:105030002B2FA70196010E94B9304B015C016091B2
:105040001A0170911B01072E000C880B990B0E940E
:105050002B2FA70196010E94B9309B01AC01C5011D
:10506000B4010E949D3120E030E040E855E40E9408
:105070008A2F20E030E0A9010E94BA3020E030E021
:1050800040E05FE30E94BA300E940F327093B70293
:105090006093B60260911C0170911D01072E000CF7
:1050A000880B990B0E942B2F6B017C01B201550CD0
:1050B000880B990B0E942B2FA70196010E94B930F3
:1050C0004B015C0160911E0170911F01072E000CC5
:1050D000880B990B0E942B2FA70196010E94B930D3
:1050E0009B01AC01C501B4010E949D3120E030E07C
:1050F00040E855E40E948A2F20E030E0A9010E9498
:10510000BA3020E030E040E05FE30E94BA300E9415
:105110000F327093B5026093B4024CA5433030F067
:10512000A42FE8A5AE1BBB0B1297E4F4C090AA0213
:10513000D090AB02E090AC02F090AD0220E030E005
:1051400044EB52E4C701B6010E94242F87FD2FC013
:1051500020E030E047E853E4C701B6010E94AB32DB
:1051600018162CF18FEF8093240110922501809363
:105170002F011092300180933A0110923B018093ED
:105180004501109246011092AA021092AB021092B1
:10519000AC021092AD0280E090E0A4EBB2E4809308
:1051A000200190932101A0932201B09323018091CB
:1051B000600181113BC680916401882309F465C0B8
:1051C000C0905C01D0905D01E0905E01F0905F01C5
:1051D0002EEB3FE94AEA5FE3C701B6010E94242FA4
:1051E000882309F452C02EEB3FE94AEA5FE3C70186
:1051F000B6010E94AB3218160CF0C6C56091B80219
:105200007091B902072E000C880B990B0E942B2F6E
:105210006B017C016091B6027091B702072E000C01
:10522000880B990B0E942B2FA70196010E94B93081
:105230004B015C016091BA027091BB02072E000C19
:10524000880B990B0E942B2FA70196010E94B93061
:105250009B01AC01C501B4010E949D3120E030E00A
:1052600040E855E40E948A2F20E030E0A9010E9426
:10527000BA3020E030E040E05FE30E94BA300E94A4
:105280000F327093B7026093B6028091B60290918C
:10529000B7026091B4027091B50221E08130F0E173
:1052A0009F0728F4613030E1730708F420E0209371
:1052B0005B012091B302211116C0613040E17407F7
:1052C00014F060E070E177FF02C070E060E08130D0
:1052D00050E1950714F080E090E197FF02C090E064
:1052E00080E00E94210D8091B2028F5F8093B20214
:1052F00080E090E0892B11F40C946C1B0E9400005C
:105300000C946C1BF8A5F23009F0CDC1BB2009F458
:105310003DC18A81882309F4FBC0EB898BE0E80258
:10532000F0011124EC5DFE4FAA89A802D0011124DE
:10533000AC5DBE4F14962D913C91159712964D91F0
:105340005C9164817581828193810E94C50E20EEFB
:105350003EE245E652E40E948A2F6B017C0120E088
:1053600030E0A9010E94242F87FF0AC020E030E02E
:1053700044EB53E4C701B6010E94BA306B017C01D3
:1053800020918A0230918B0240918C0250918D02C3
:10539000C701B6010E94B9300E94470A6B017C0127
:1053A00002E010E0F801EE0FFF1FEE0FFF1FE656C0
:1053B000FD4F408051806280738020E030E0A90181
:1053C000C301B2010E94242F882309F4EBCCB11051
:1053D00004C08981882309F4E5CC2091AA02309188
:1053E000AB024091AC025091AD02C701B6010E94E0
:1053F000B9309B01AC016091200170912101809135
:105400002201909123010E94BA3060932001709391
:1054100021018093220190932301C092AA02D0928D
:10542000AB02E092AC02F092AD02FE01E00FF11F80
:10543000E1890E2F0E2E000C110B2BE0E202F00181
:105440001124EC5DFE4F62817381072E000C880BE6
:10545000990B0E942B2F4B015C0120E030E044E3CC
:1054600053E4C701B6010E94AB32181654F420E091
:1054700030E044EB53E4C701B6010E94B9306B0140
:105480007C0125E33AEF4EE85CE3C701B6010E94D8
:105490008A2F6B017C010E9498319B01AC01C301F2
:1054A000B2010E948A2FA50194010E94BA300E9485
:1054B0000F327093530160935201C701B6010E94ED
:1054C000B8326B017C018BE0809FF001819FF00D71
:1054D0001124EC5DFE4F64817581072E000C880B52
:1054E000990B0E942B2F4B015C01A7019601C30170
:1054F000B2010E948A2F9B01AC01C501B4010E9438
:10550000BA300E940F3270935501609354014ACC17
:105510001123E1F1EB898BE0E802F0011124EC5D4D
:10552000FE4FAC89A802D0011124AC5DBE4F149689
:105530002D913C91159712964D915C9164817581E6
:10554000828193810E94C50E20EE3EE245E652E440
:105550000E948A2F6B017C0120E030E0A9010E94AB
:10556000242F87FF0AC020E030E044EB53E4C7015A
:10557000B6010E94BA306B017C0120918E023091FD
:105580008F02409190025091910202CF898188232D
:1055900009F408CC8A81882309F446C0E9898BE0A4
:1055A000E802F0011124EC5DFE4FAA89A802D001A7
:1055B0001124AC5DBE4F14962D913C911597129617
:1055C0004D915C9164817581828193810E94C50EA9
:1055D00020EE3EE245E652E40E948A2F6B017C01F8
:1055E00020E030E0A9010E94242F87FF0AC020E0BC
:1055F00030E044EB53E4C701B6010E94BA306B01BE
:105600007C0120919202309193024091940250913A
:105610009502C701B6010E94B9300E94470A6B018A
:105620007C0110E000E0BECE112309F4BBCBE98978
:105630008BE0E802F0011124EC5DFE4FAC89A8027A
:10564000D0011124AC5DBE4F14962D913C9115975D
:1056500012964D915C9164817581828193810E9443
:10566000C50E20EE3EE245E652E40E948A2F6B0111
:105670007C0120E030E0A9010E94242F87FF0AC0AE
:1056800020E030E044EB53E4C701B6010E94BA3099
:105690006B017C0120919602309197024091980213
:1056A00050919902B6CF38A5333009F09BC0BB208A
:1056B00009F4C7C38981882309F460C02091AA0234
:1056C0003091AB024091AC025091AD02C301B201E6
:1056D0000E94B93020912001309121014091220196
:1056E000509123010E94BA300E94470A6093200122
:1056F0007093210180932201909323014092AA028A
:105700005092AB026092AC027092AD0202E010E0E7
:10571000F801EE0FFF1FEE0FFF1FE656FD4F8080D2
:105720009180A280B38020E030E0A901C501B401DE
:105730000E94242F882309F435CBFE01E00FF11FCE
:10574000E1890E2F0E2E000C110B5BE0E502F0013B
:105750001124EC5DFE4F62817381072E000C880BD3
:10576000990B0E942B2F2B013C01C090AA02D090D4
:10577000AB02E090AC02F090AD026AC8112331F2A6
:105780008A81882341F120912001309121014091AB
:10579000220150912301C701B6010E94B930209126
:1057A000AA023091AB024091AC025091AD020E942E
:1057B000BA300E94470A6093AA027093AB028093AA
:1057C000AC029093AD02C0922001D0922101E092F0
:1057D0002201F0922301B11099CF098141E0042701
:1057E000019595CF88A5843009F0DCCA4092AA02C1
:1057F0005092AB026092AC027092AD02C092200156
:10580000D0922101E0922201F09223019A899AAF6D
:105810002BE0392F3203800111240C5D1E4FD8017B
:1058200014966D917C91072E000C880B990B0E94A9
:105830002B2F6CA37DA38EA39FA3F801628173819C
:10584000072E000C880B990B0E942B2F6B017C01FB
:10585000FC89FEAB2BE03F2F3203800111240C5D4D
:105860001E4FD80114966D917C91072E000C880B69
:10587000990B0E942B2F68A379A38AA39BA3F801FD
:1058800062817381072E000C880B990B0E942B2FCD
:105890006EA77FA788AB99AB39882BE0332D3203F5
:1058A000800111240C5D1E4FD80114966D917C91DE
:1058B000072E000C880B990B0E942B2F6AAB7BAB39
:1058C0008CAB9DABF80162817381072E000C880BB5
:1058D000990B0E942B2F4B015C012B882BE0322D62
:1058E0003203800111240C5D1E4FD80114966D9176
:1058F0007C91072E000C880B990B0E942B2F6CAF0C
:105900007DAF8EAF9FAFF80162817381072E000CCF
:10591000880B990B0E942B2F28966CAF7DAF8EAF12
:105920009FAF28972CAD3DAD4EAD5FADC501B40125
:105930000E948A2F24966CAF7DAF8EAF9FAF2497C5
:1059400028962CAD3DAD4EAD5FAD28976AA97BA9D9
:105950008CA99DA90E948A2F9B01AC0124966CAD55
:105960007DAD8EAD9FAD24970E94B93024966CAF6B
:105970007DAF8EAF9FAF24972EA53FA548A959A90B
:10598000C701B6010E94B9302C966CAF7DAF8EAFC7
:105990009FAF2C9728A139A14AA15BA1C701B601ED
:1059A0000E948A2F6B017C012EA53FA548A959A909
:1059B0006CA17DA18EA19FA10E948A2F9B01AC01A9
:1059C000C701B6010E94B9306B017C0128962CAD4D
:1059D0003DAD4EAD5FAD2897C501B4010E94B93011
:1059E0004B015C0128A139A14AA15BA16CA17DA159
:1059F0008EA19FA10E94B93068A379A38AA39BA31B
:105A00002CAD3DAD4EAD5FAD6AA97BA98CA99DA91A
:105A10000E94B9306EA77FA788AB99AB28A139A1A6
:105A20004AA15BA1C501B4010E948A2F6CA37DA38A
:105A30008EA39FA32EA53FA548A959A92C966CAD6E
:105A40007DAD8EAD9FAD2C970E948A2F9B01AC013E
:105A50006CA17DA18EA19FA10E94B9306AAB7BABE6
:105A60008CAB9DAB2C962CAD3DAD4EAD5FAD2C9768
:105A700024966CAD7DAD8EAD9FAD24970E948A2F8C
:105A80006CA37DA38EA39FA3A5019401C701B601BA
:105A90000E948A2F9B01AC016CA17DA18EA19FA1C8
:105AA0000E94B9302AA93BA94CA95DA90E949D3149
:105AB0000E940F326CA37DA38EA39FA32CA13DA1B6
:105AC000309353012093520128A139A14AA15BA12F
:105AD00024966CAD7DAD8EAD9FAD24970E948A2F2C
